:020000040001F9
:10F0000048730020BDF50100C5F50100C7F50100FA
:10F01000C9F50100CBF50100CDF5010000000000AD
:10F02000000000000000000000000000CFF501001B
:10F030000000000000000000D1F50100D3F5010040
:10F04000D5F50100D5F50100B10C0200090B020055
:10F05000D5F50100D5F501006D090200D5F50100D7
:10F06000D5F50100D5F50100D5F50100D5F5010074
:10F07000D5F50100D5F50100D5F50100D5F5010064
:10F08000D5F50100E50A0200D5F50100D5F501002E
:10F09000150B0200D5F50100690B0200D5F5010042
:10F0A000D5F50100D5F50100D5F50100D5F5010034
:10F0B000D5F50100D5F501000000000000000000BA
:10F0C000D5F50100D5F50100D5F50100D5F5010014
:10F0D000D5F50100D5F5010000000000000000009A
:10F0E0000000000000000000000000000000000020
:10F0F0000000000000000000000000000000000010
:10F1000000000000000000000000000000000000FF
:10F1100000000000000000000000000000000000EF
:10F4000000F002F800F052F80AA090E8000C8244E4
:10F410008344AAF10107DA4501D100F047F8AFF2C1
:10F42000090EBAE80F0013F0010F18BFFB1A43F0E2
:10F43000010318475456000074560000103A24BFC8
:10F4400078C878C1FAD8520724BF30C830C144BF49
:10F4500004680C607047000000230024002500268B
:10F46000103A28BF78C1FBD8520728BF30C148BF27
:10F470000B607047662905F0BA81782900F02E816B
:10F48000632900F02485732900F029850020704746
:10F490001FB505F0A2F900F039FD0400002000219D
:10F4A00004F01EFFE0601FBD10B510BD00F02EFE81
:10F4B0001146FFF7EDFF03F00FFA00F04CFE03B426
:10F4C000FFF7F2FF03BC00F08FFE0000401E00BFFC
:10F4D00000BF00BF00BF00BF00BF00BF00BF00BF34
:10F4E00000BF00BF00BF00BF00BF00BF00BF00BF24
:10F4F00000BF00BF00BF00BF00BF00BF00BF00BF14
:10F5000000BF00BF00BF00BF00BF00BF00BF00BF03
:10F5100000BF00BF00BF00BF00BF00BF00BF00BFF3
:10F5200000BF00BF00BF00BF00BF00BF00BF00BFE3
:10F5300000BF00BF00BF00BF00BF00BF00BFC5D1FC
:10F5400070470000401E00BF00BF00BF00BF00BFEB
:10F5500000BF00BF00BF00BF00BF00BF00BF00BFB3
:10F5600000BF00BF00BF00BF00BF00BF00BF00BFA3
:10F5700000BF00BF00BF00BF00BF00BF00BF00BF93
:10F5800000BF00BF00BF00BF00BF00BF00BF00BF83
:10F5900000BF00BF00BF00BF00BF00BF00BF00BF73
:10F5A00000BF00BF00BF00BF00BF00BF00BF00BF63
:10F5B00000BF00BF00BFC5D17047000009488047A9
:10F5C00009480047FEE7FEE7FEE7FEE7FEE7FEE745
:10F5D000FEE7FEE7FEE7000004480549054A064B42
:10F5E00070470000910B020001F401004833002035
:10F5F0004873002048530020485300200FB40449AA
:10F6000010B503AA029800F06FFC10BC5DF814FB63
:10F61000EC2800200FB41CB5074B06AA7B446946B2
:10F620000090059800F031FC0020694600F040FC95
:10F630001CBC5DF814FB00009108000070B5044686
:10F6400085690068C10601D5302600E02026C00784
:10F6500007D070BDD4E9012130469047206A401C94
:10F6600020626D1EF6D570BD70B5044685690078C0
:10F67000C00707D170BDD4E9012120209047206A3E
:10F68000401C20626D1EF6D570BD70B50C46054657
:10F69000012A05D02878800600D5EA69002302E017
:10F6A000012305E05B1C934202D2E05C0028F9D103
:10F6B000A869E618C01AA861286A18442862284672
:10F6C000FFF7BCFF04E0D5E9012114F8010B9047D6
:10F6D000B442F8D32846FFF7C7FF70BD70B50446A3
:10F6E0000D4621461068AFF300802188090502D538
:10F6F0000F4A7A4402E00E4A7A440E32002104F1A5
:10F70000240305E000F00F060009965D5E54491CD5
:10F710000028F7D120780023000704D5702D02D0EF
:10F7200009B1022311322046BDE8704000F041B912
:10F73000C25200002DE9F05F894604464FF0000AEE
:10F74000DFF824B1FB44C0F820A02046E1688847D8
:10F7500000287DD0252806D0D4E901219047206AD1
:10F76000401C2062F1E700255F462046E16888479B
:10F770002028064607DB312E05D2B81910F8200CD8
:10F7800008B10543F1E7A80701D525F00405C4F841
:10F790001CA00027C4F818A02A2E09D0304601F07A
:10F7A00057FB38B304EB8708303EC8F8186019E0FF
:10F7B00059F8041B204604EB87029161E1688847F1
:10F7C000012F064618D1E069002820DA25F020052F
:10F7D0001DE0D8F8180000EB800006EB4000303840
:10F7E000C8F818002046E1688847064601F030FB5B
:10F7F0000028EED1012F0AD02E2E08D12046E16834
:10F8000088477F1C0646022F45F02005C4DBA0690F
:10F81000002803DA404245F00105A061E80701D065
:10F8200025F01005A6B1A6F14100192802D820360E
:10F8300045F400654A463146204625604D46FFF7AF
:10F8400019FE60B1012807D0ED1D25F0070000E08A
:10F8500007E000F1080978E705F1040975E730468B
:10F860007AE7206ABDE8F09F9852000002F00CBED3
:10F87000032A40F2308010F0030C00F0158011F8DC
:10F88000013BBCF1020F624498BF11F801CB00F8B4
:10F89000013B38BF11F8013BA2F1040298BF00F808
:10F8A00001CB38BF00F8013B11F0030300F02580C5
:10F8B000083AC0F0088051F8043B083A51F804CBEC
:10F8C000A0E80810F5E7121D5CBF51F8043B40F8B2
:10F8D000043BAFF30080D20724BF11F8013B11F8BD
:10F8E00001CB48BF11F8012B24BF00F8013B00F801
:10F8F00001CB48BF00F8012B704710B5203AC0F08B
:10F900000B80B1E81850203AA0E81850B1E8185020
:10F91000A0E81850BFF4F5AF5FEA027C24BFB1E85D
:10F920001850A0E8185044BF18C918C0BDE81040CE
:10F930005FEA827C24BF51F8043B40F8043B08BFD7
:10F940007047D20728BF31F8023B48BF11F8012B9E
:10F9500028BF20F8023B48BF00F8012B70474FF04A
:10F96000000200B5134694469646203922BFA0E80F
:10F970000C50A0E80C50B1F12001BFF4F7AF09071B
:10F9800028BFA0E80C5048BF0CC05DF804EB89000C
:10F9900028BF40F8042B08BF704748BF20F8022B4F
:10F9A00011F0804F18BF00F8012B70477047704767
:10F9B00070472DE9F0470D4699469246044600F1FE
:10F9C00024080168880604D5E06921F0100121604F
:10F9D00000E00120A84201DD471B00E00027A169EB
:10F9E0007A1902EB0900081AA0612078C00602D437
:10F9F0002046FFF723FE002608E0D4E901211AF88B
:10FA000006009047206A401C761C20624E45F4DBBD
:10FA10002078C0060AD52046FFF710FE06E0D4E99C
:10FA2000012130209047206A401C2062381EA7F137
:10FA30000107F4DC07E0D4E9012118F8050090473C
:10FA4000206A401C2062281EA5F10105F3DC204637
:10FA5000FFF70AFE2078000602D50220BDE8F087F5
:10FA60000120FBE770472DE9FF4F0C461E464FF083
:10FA7000FF378BB0D2E90001DDF860800A908A463A
:10FA8000C1F30A5505B93D46002108464FF0000074
:10FA9000BAF1000F00F4400005DA00EB80004FF4EB
:10FAA000400101EA50004FEA9059B9F1010F00DD21
:10FAB000B9460A9850EA4A000ED044F61050A5F212
:10FAC000FF3545432F14B8F1000F1ED07542291E93
:10FAD0001EDDC9F100021CE0B8F1010F4FF000007B
:10FAE00001D0302103E0F24305E02154401CB04234
:10FAF000FBDB30460022002121540B99C1F808801D
:10FB0000C1E900200FB0BDE8F08FBD1B6D1CDEE722
:10FB10004A4600DA694206A800F082FA06AB93E88A
:10FB2000070003AB83E8070050460A9900F063FB27
:10FB30008DE80700A0F500501F3800900398002DB5
:10FB400009DD42F21F014A46084403A903906846B2
:10FB500000F0C2FD08E0A0F500504A461F3803A996
:10FB60000390684600F0CCFD8DE807000004000C0F
:10FB700003D04FF0FF30410800E01046B8F1000F0D
:10FB800003D00022009215461EE0751E05D400F039
:10FB9000C1F9303262556D1EF9D5B34601220843D2
:10FBA00002D000227F1C04E02078302801D10022FE
:10FBB0007F1E002A099786D01DE0112D07DA00F07C
:10FBC000A9F9303262556D1C50EA0102F5D10843A3
:10FBD00002D00098C8B10EE00021681E05E0235C49
:10FBE000625C63542254401E491C8142F7DBAB46E1
:10FBF000A81B401E0990002004F80B000B98099ADE
:10FC0000C0F80880C0E9002B7CE711264FF00008FF
:10FC100059E72DE9F04F88460446D21D22F007012E
:10FC200091B0D1E90001CDE90A0101F0F9F80246ED
:10FC30000B98C00F01D02D2007E02068810701D567
:10FC40002B2002E0202101EAC000032A099001D004
:10FC5000072A05DB03464146204600F0A1F90BE1E7
:10FC60002078800601D5E06900E00620B8F1650F34
:10FC7000814606D0B8F1660F18D0B8F1670F70D181
:10FC800031E00020B9F1110F009001DB112301E0F8
:10FC900009F101030AAA01A90CA8FFF7E4FEDDE9B6
:10FCA0000C70002609F10105834647E001204B4610
:10FCB00000904FF000470AAA01A90CA8FFF7D3FE55
:10FCC000DDE90DB00C995D46002610B909F101007F
:10FCD0000D18B9EB050003D4C0F1FF3609F1010599
:10FCE000A5EB09002BE0B9F1010F01DA4FF0010992
:10FCF0000020B9F1110F0090484601DD112300E00A
:10FD000003460AAA01A90CA8FFF7ADFEDDE90C70B5
:10FD10004D4600268346207800070AD4AB4500DA1A
:10FD20005D4601A8012D04DD411911F8011C30299F
:10FD300007D04F4502DA17F1040F04DA012082469A
:10FD40000FE06D1EEEE7002F02DCED1B3E4403E0EA
:10FD5000781CA84200DD7D1CB81B00F1010A4FF0A1
:10FD600000472078000703D4AA4501DB4FF0FF3A93
:10FD70000021B7F1004F0DF143088DF8431024D056
:10FD800002202B23002F01DA7F422D230A21021E9D
:10FD9000A0F1010000DC5FB197FBF1FC97FBF1F2F1
:10FDA00001FB1C7C17460CF1300C08F801CDEEE786
:10FDB000A8F1010003702188090501D5452100E063
:10FDC0006521A0F1010800F8011C09980FA9A1EB19
:10FDD0000807FF1D00B10120411901EBEA70A1697C
:10FDE0003844081A401EA0612078C00602D420467C
:10FDF000FFF724FC099828B1D4E901219047206A33
:10FE0000401C20622078C00622D52046FFF716FC51
:10FE10001EE0002E04DBB34502DD01A8805D00E09A
:10FE20003020D4E901219047206A401C2062761CD2
:10FE3000AAF101005FEA000A0AD100F067F8C06881
:10FE40000168405CD4E901219047206A401C20628F
:10FE5000281EA5F10105DCDC07E0D4E9012118F832
:10FE6000010B9047206A401C2062381EA7F1010751
:10FE7000F3DC2046FFF7F8FB032011B043E6000057
:10FE800001694A1C02610878704700B58FB0CDE95E
:10FE900001310021059105497944CDE9031011464E
:10FEA0006846FFF747FC0FB000BD0000E5FFFFFF0D
:10FEB0000A6802F8010B0A60704710B5436913B174
:10FEC000AFF3008001E0FFF7E0FB012010BD1278E6
:10FED00000F124010A7000224A700122EDE7116846
:10FEE0004FF0FF32E9E70000074B70B50D467B4449
:10FEF000FFF7CBFF0446284600F000F910B14FF0A1
:10FF0000FF3070BD204670BDE125000000487047FD
:10FF10000833002030B5B0F10A024FEA900E71F1BB
:10FF200000034EEA817EB0EB0E0061EB91014FEAD7
:10FF3000101E4EEA017E10EB0E0041EB11114FEA4C
:10FF4000102E4EEA016E10EB0E0041EB11214FEA2C
:10FF5000104E4EEA014E10EB0E0041EB11414018DD
:10FF600041F100014FEAD00040EA41704FEAD1016F
:10FF700010EB80054FEA810444EA907444EB0104DD
:10FF80006D1944EB0404521BA3414FF0000348BF1A
:10FF90000A3200D530BD401C41F1000130BD0000E7
:10FFA0002DE9F0411F46044603260168072A01F4A3
:10FFB000006004DB08B116A505E016A503E008B152
:10FFC00015A500E015A521F010002060A069C01E55
:10FFD000A0610FB1401EA0612046FFF72FFB4FB17B
:10FFE000D4E9012138469047206A401C2062C01C99
:10FFF000206206E0206AFAE7D4E9012115F8010B36
:020000040002F8
:100000009047761EF8D22046FFF72EFBBDE8F08120
:100010004E414E006E616E00494E4600696E6600AC
:100020002DE9F047814616468AB0334878440DC81A
:100030008DE80D0030487844801C03AC0DC884E87E
:100040000D0041F69B300844372190FBF1F290FB04
:10005000F1F5A5F1800501FB12041B3C02D56442B9
:10006000012000E00020DFF890A080460027FA443D
:10007000AAF1BE0A0DE0E00709D03246684607EB58
:1000800047010AEB810100F03BFB8DE8070064109B
:100090007F1C002CEFD1184F7F44AC3F18E0E807DD
:1000A00014D007EB04100DF1180A90E80E008AE84E
:1000B0000E00C068F04201D198190890324606A996
:1000C00003A800F01DFB03AB83E807006D10641C60
:1000D000002DE4D132466946B8F1000F03A802D0E2
:1000E00000F0FAFA01E000F00BFBC9E90001C9F8E1
:1000F00008200AB0BDE8F087404A0000007B00F00D
:100100008000704700487047E83200207546FFF7CE
:10011000F9FFAE4605006946534620F007008546C4
:1001200018B020B5FFF758FABDE820404FF00006A0
:100130004FF000074FF000084FF0000B21F00701CF
:10014000AC46ACE8C009ACE8C009ACE8C009ACE812
:10015000C0098D46704710B50446AFF300802046B5
:10016000BDE81040FFF7ABB94FF0013C50F8042B4D
:1001700051F8043B9A4221D1A2EB0C03934313EABA
:10018000CC1317D150F8042B51F8043B9A4215D1E7
:10019000A2EB0C03934313EACC130BD150F8042BBE
:1001A00051F8043B9A4209D1A2EB0C03934313EAA2
:1001B000CC13DBD04FF00000704700BFD01A01BA5B
:1001C000B1FA81F101F0180122FA01F0CB40C1F13E
:1001D0002001DBB2C0B2C01A2CFA01F3D11A91434C
:1001E00011EAC311E6D1704701491820ABBEFEE702
:1001F0002600020070475FEA400C08BF91F0000F34
:100200004FEA8C234FEAC12243EA51514FEA1C5076
:1002100018BF00F5F0404FEA300018BF41F0004130
:100220005FEA6C5C00F02980BCF1FF3F08BF40F042
:1002300080407047130C06BF12044FF0100C4FF0B3
:10024000000C130E04BF12020CF1080C130F04BFB4
:1002500012010CF1040C930F04BF92000CF1020C7C
:10026000D30F04BF52000CF1010C11464FF00002F5
:10027000A0F11F00A0EB0C00704711F0004F08BF69
:10028000704731F000413FF4D5AF0B0C06BF0904B5
:100290004FF0100C4FF0000C0B0E04BF09020CF1D4
:1002A000080C0B0F04BF09010CF1040C8B0F04BFE9
:1002B00089000CF1020CCB0F04BF49000CF1010CBA
:1002C000CCF12003A0EB0C0022FA03F302FA0CF2AB
:1002D00041EA030100F10100704720F07F4C80EA01
:1002E000030023F07F47ACEB070303F57C5300F0DA
:1002F000004003F1FF032DE980494FEA154B09B493
:100300004FEA144325EA0B4E24EA03480FF2042671
:1003100006EB132749083E785FEA320203FB0667C3
:10032000C7F5000707FB06F64FEA54374FEAD646F3
:1003300006F1020607FB066CCCF1005C4FEA1C4795
:100340002CEA074C07FB06F40CFB06F504EB1546FC
:100350004FEA961634BF00204FF000404FEAD137E5
:1003600006FB07FC4FEA1C4C0CFB0BF7D21B03FBF4
:100370000CF761EB07010CFB0EF7B0EB074072EBDB
:1003800017420CFB08F734BFA2EB0742B2EB07425F
:1003900061EB17414FEA0C444FEA910706FB07FC5B
:1003A0004FEA1C4C0CFB0BF7B0EBC74072EB57321B
:1003B00003FB0CF734BFA2EBC742B2EBC74261EBC1
:1003C00057310CFB0EF7B0EBC70072EB57720CFB0A
:1003D00008F734BFA2EBC702B2EBC70261EB57715B
:1003E000039F4FEA816141EA921104EBCC044FEA8A
:1003F000D1374FEA826206FB07FC42EA90124FEACD
:1004000080604FEA1C4C0CFB0BF7D21B03FB0CF774
:1004100061EB07010CFB0EF7B0EB074072EB1742E4
:100420000CFB08F734BFA2EB0742B2EB074261EBCB
:1004300017414FEA8C554FEA910704EB9C2406FBC9
:1004400007FC4FEA1C4C0CFB0BF7B0EBC74072EB00
:10045000573203FB0CF734BFA2EBC742B2EBC742E3
:1004600061EB57310CFB0EF7B0EBC70072EB577224
:100470000CFB08F734BFA2EBC702B2EBC70261EB7B
:10048000577115EB4C254FEA816141EA92114FEA11
:1004900082624FEAD13742EA901206FB07FC44F130
:1004A00000044FEA80604FEA1C4C0CFB0BF7D21B98
:1004B00003FB0CF761EB07010CFB0EF7B0EB0740F9
:1004C00072EB17420CFB08F734BFA2EB0742B2EB0A
:1004D000074261EB174115EB1C154FEA813141EAE8
:1004E00092414FEA823242EA90424FEA80304FEA2C
:1004F0000C7644F1000448EA03434EEA0B484FF0FF
:10050000000EB2EB080C71EB030724BF62463946BC
:100510004EEB0E0E4FF0000B0018524149414BEBD1
:100520000B0BB2EB080C71EB03077BF1000B24BF44
:10053000624639464EEB0E0E4FF0000B001852414A
:1005400049414BEB0B0BB2EB080C71EB03077BF152
:10055000000B24BF624639464EEB0E0E51EA0207ED
:1005600018BF46F0010616EB0E7655F1000254F165
:10057000000103D5BDE88901BDE80088BDE8890117
:10058000BDE80048B619524141EB0101A3F1010356
:10059000704780807F7E7D7C7B7A797877767675F0
:1005A0007473727171706F6E6E6D6C6C6B6A6A6968
:1005B0006868676666656464636362616160605F02
:1005C0005F5E5E5D5D5C5C5B5B5A5A59595858577B
:1005D00057565655555554545353525252515150E3
:1005E00050504F4F4F4E4E4D4D4D4C4C4C4B4B4B36
:1005F0004A4A4A494949484848474747474646467C
:1006000045454544444444434343434242424241B6
:100610004141002B26D4770021D01CB54FEA370783
:1006200003B44FF010004FF010014FF000000FBC6A
:10063000BDE810400BF1010BBBF1010F08BF5FEAF1
:10064000170722BF12F1010211F101014FF0004121
:1006500043F1000300F0004043EA00007047F9D383
:100660005708DAE746EA064613F1400F4FEA164606
:100670001FDD13F1200FDFBF16430A460021203390
:100680005B42C8D0C3F1200746EA064602FA07F7E4
:100690004FEA164646EA0706C3F1200722FA03F29C
:1006A00001FA07F721FA03F14FF0000342EA0702CB
:1006B000B1E746EA020646EA06464FEA164646EA29
:1006C0000106BCBF46EA0646360C4FF000034FF069
:1006D00000024FF000019EE72DE9C048934630B478
:1006E00091E8380007C831EA400C48BF34EA430CAF
:1006F00003D5FFF7F2FDFFF78CFFF0BCBDE80088E3
:100700002DE9C048934630B491E8380007C810F08E
:10071000804F08BF13F0804F03D100F005F8FFF7BA
:1007200078FFF0BCBDE8008820F07F4780EA030036
:1007300023F07F4C07EB0C03A3F57C5300F0004043
:10074000A3F1FE0392F0000F00F0B38095F0000FCC
:1007500000F077802DE901494FEA11404FEA144635
:1007600021EA004800FB06FC24EA064708FB06F6DF
:1007700007FB08F800FB07F718EB06484CEB164C94
:100780004FEA124B18EB07484FEA15464CEB17405F
:1007900022EA0B4E0BFB06FC25EA06470EFB06F68B
:1007A00007FB0EFE0BFB07F71EEB064E4CEB164C41
:1007B0004FF000061EEB074E4CEB174B18EB0B08E7
:1007C00040F1000018EB0E0B58EB000840F1000060
:1007D0008F1A4FF000013CBFC943661B14BFB5EB35
:1007E000040C00213CBFC943F61B4FEA17444EEAF4
:1007F0008E0E27EA04454FEA1C4704FB07622CEAE9
:10080000074C05FB07F70CFB05F604FB0CFC16EB8D
:10081000074642EB174216EB0C4642EB1C421BEB21
:10082000060658EB0202414146EA9E0601D5BDE8A4
:100830000189B619524141EB0101A3F10103BDE861
:1008400001894FEA14454FEA114724EA054621EA97
:10085000074C05FB07F406FB07F70CFB06F105FB4D
:100860000CFC11EB074144EB17444FEA124711EB24
:100870000C4144EB1C4422EA074C05FB07F206FB43
:1008800007F70CFB06F605FB0CFC16EB074642EBE4
:10089000174216EB0C4642EB1C456A1854F1000156
:1008A00048BF7047B619524141EB0101A3F1010362
:1008B000704795F0000F37D04FEA11424FEA1447C6
:1008C00021EA024624EA074C02FB07F106FB07F780
:1008D0000CFB06F402FB0CFC14EB074441EB174144
:1008E0004FEA154714EB0C4441EB1C4125EA074C39
:1008F00002FB07F506FB07F70CFB06F602FB0CFCF8
:1009000016EB074645EB174516EB0C4645EB1C422C
:10091000121951F1000148BF7047B619524141EB1D
:100920000101A3F1010370474FEA14454FEA114753
:1009300024EA054621EA074C05FB07F106FB07F709
:100940000CFB06F24FF0000605FB0CFC12EB074215
:1009500041EB174112EB0C4251EB1C4148BF704771
:10096000921841EB0101A3F1010370472DE9F05FFB
:1009700000250127DFF8FCA0A8464FF480762C461E
:10098000B946304602F0F6FC48B1DAF8041309FA29
:1009900004F0014203D0304602F0E2FC3D43361D34
:1009A0007F00641CB6B2082CEBD34FF4BE74204613
:1009B00002F0E0FC38B1204602F0D2FC2E4845F0AF
:1009C0000045D0F800802D4E280715D001270024BF
:1009D0002F420DD00AEB8401D1F81005D1F8101583
:1009E000C0F3042006EB8402C1F301415268904732
:1009F0007F00641C082CEBD3002D36DA0024CB4694
:100A0000B2460AEB0400574690F8540020F0C005A7
:100A10004FEA90190BFA05F6284602F073FD08B369
:100A2000284601F0E3FB07EB80004768D7B1A80038
:100A300000F1A040D0F8000716EA080FC0F301400B
:100A400002D0022802D00DE003280BD1B9F1030F28
:100A500005D102280BD00221284602F06AFC494643
:100A60002846B847641C042CCBD3BDE8F09F032173
:100A7000F2E70000006000401005005084310020C3
:100A800000F01F02012191404009800000F1E020A8
:100A9000C0F88012704700F01F0201219140400908
:100AA000800000F1E020C0F80011704700F01F0244
:100AB000012191404009800000F1E020C0F80012BF
:100AC00070474907090E002806DA00F00F0000F110
:100AD000E02080F8141D704700F1E02080F8001439
:100AE0007047000007480021C0F84011C0F84411C9
:100AF000C0F84811C0F84C11C0F80011C0F804113A
:100B000003F058B8001001400021014802F01CBA5F
:100B1000003000402DE9F04186B04FF0FF30114D1C
:100B200002906846D5E9046801F05EFC074601F0D2
:100B3000FFFD044647B102AA4146009801F074FC4B
:100B4000029801F047FE04E0029801F043FE00B96C
:100B500014B1304601F052FB0020687106B0BDE8C8
:100B6000F0810000C8280020084810B5406840B156
:100B70008047002809D00022BDE81040114600F04F
:100B800059BBBDE8104001F055BD10BDF428002050
:100B900070B53F483E490024091D00780A1D131D09
:100BA000012506280BD10E78360708D11678C6F332
:100BB0000316032E03D11E7816F0F00F02D006287C
:100BC00006D011E03348016821F0807101600EE029
:100BD0000E78360708D11678C6F30316032E03D114
:100BE0001E7816F0F00F02D0062804D015E02A492E
:100BF000032008600BE0087800070ED11078C0F3DE
:100C00000310032809D1187810F0F00F05D14FF028
:100C10008040C0F80C41C0F810411E48743801688B
:100C200041F470010160BFF34F8FBFF36F8F4FF03E
:100C30001021D1F80002002803DBD1F800020028BF
:100C400021DA164A156016480368002BFCD01523DC
:100C5000C1F800320568002DFCD0C1F804320168EB
:100C60000029FCD0146001680029FCD0BFF34F8F2D
:100C70000848F03801680B4A01F4E0611143016053
:100C8000BFF34F8FFEE709490748086070BD0000B9
:100C9000E00F00F0FCED00E0A005004004E501409D
:100CA00000E401400400FA050090D0030829002068
:100CB0002DE9FF47584C0026584DE07D4FF00209C2
:100CC00000284FF492714FF4A27A284649D002F0DE
:100CD00063FBA0B1C5F824618DF80090D5F88004BD
:100CE000C5F880040390D5F83C058DF80800E0684D
:100CF0000190E674D4E90012684690470FE04FF483
:100D00008871284602F048FB48B1C5F81061D5F853
:100D10003C05E17CC0B2814201D102F003FE5146A4
:100D2000284602F039FB40B1C5F84461E07C20B1AF
:100D3000D5F83C05C0B202F0F5FD4FF4907128469D
:100D400002F02AFB002865D0C5F82061A07C0028AD
:100D500060D0D5F84C0504B0C0B2BDE8F04703F050
:100D6000F9B802F014FB4FF401780127C0B1C5F8BF
:100D70002461C5F80883607D00B96F608DF800902C
:100D8000D5F88004C5F880040390E07C8DF8080055
:100D9000E0680190E674D4E900126846904713E0D9
:100DA0004FF48471284602F0F2FA68B102F01EFD99
:100DB000E07C217D884207D1607D00B96F60C5F875
:100DC0000883207D02F0AEFD4FF48E71284602F0BC
:100DD000DEFA58B1A07C218A884202D903F046F895
:100DE00004E0C5F81C6108B103F0B4F85146284688
:100DF00002F0CDFA00280DD0C5F84461607D00B145
:100E00002F60E07C002805D0207D04B0BDE8F047CD
:100E100002F088BDBDE8FF87DC31002000200040E3
:100E200003B401984100009850EAC12018BF042083
:100E30004A0D18BF40F0010040F2FF72B2EB515F63
:100E400008BF40F00200012808BF052002B070472B
:100E500030380A2801D20120704700207047000076
:100E600040790449C0EBC00001EB80000121C17151
:100E700070470000CC32002030B44179144AC1EBF5
:100E8000C10102EB810102680B7AC2F88835026861
:100E90000123136208220A754FF48E7221F8162F6F
:100EA000026831F812390024D4504279094B53F8C2
:100EB00022204AB103684A69C3F8082380224A61A4
:100EC00002684969C2F8041330BC03F055B8000049
:100ED000CC320020942800202DE9FC5F00251688E4
:100EE00007461580406B14468946A8464FF00C0A09
:100EF00011234FF0020B98B101784846032E48D3D6
:100F000080F800B02288521C92B22280835422883A
:100F1000521C92B2228009F802102088401C2080C6
:100F20003A6BDAB12088494600F11205B54230D853
:100F30000B5420881023401C80B220800B54208842
:100F4000401C20800F202388155C401ECD54238830
:100F500040B25B1C23800028F5DA454697F82E0046
:100F600030B133462246494601F0AEFB050011D1AF
:100F700097F82D0030B132462146484600F0BAFDC0
:100F8000050007D1B87820B32088C846001DB042BC
:100F900002D95046BDE8FC9F684679DF0028F9D1A8
:100FA0002188032008F8010020881921401C80B204
:100FB000208008F800102088401C80B2208000EBC0
:100FC0000801BDF8000003F081F8014620880844BC
:100FD0002080F878B8B1228897F90310D31C4846CE
:100FE000B342D6D800F802B022880123521C92B234
:100FF000228083542288521C92B2228009F8021067
:101000002088401C20807868B8B1218890F90020A1
:10101000CB1C4846B342BCD800F801B021880A2353
:10102000491C89B2218043542188491C89B22180FE
:1010300009F801202088401C2080388950B1CDE972
:1010400000464B460622022107F1080003F0A9F8EA
:1010500005009FD1388A50B1CDE900464B460722A2
:10106000032107F1100003F09CF8050092D1388BA2
:1010700050B1CDE900464B461522142107F1180066
:1010800003F08FF8050085D1386A30B13346224627
:10109000494601F007F90500DBD1786A30B13346E3
:1010A0002246494601F058FD0500D2D197F82C00A0
:1010B00038B1334622464946384602F053FC050013
:1010C000C7D1387838B1334622464946384601F010
:1010D00075FD0500BDD128465CE710B5012202214F
:1010E000002000F0BFFE08B1072810D1072202211E
:1010F000012000F0B7FE08B1072808D100210A221C
:10110000084600F0AFFE08B1072800D1002010BD4E
:1011100030B5A7B0382101A8FEF721FC02208DF8D8
:10112000040000248DF8064005208DF807003821C2
:101130000FA8FEF714FC0F4801251490ADF84C5091
:1011400024211DA8FEF70BFC40202190B420229002
:101150008DF88050084B1DAA0FA9009401A800F03B
:101160007BFA002803D00022114600F063F827B074
:1011700030BD000004280020E53302000648006866
:101180004FF40021044A8143121D1160111D00F427
:1011900000200860704700000405005070B500246E
:1011A000064D06E06868012110F8340001F070FD7A
:1011B000641C28788442F5D3002070BDB02800203C
:1011C000F8B515460C460646052A01D20720F8BD9B
:1011D00001F036FE18B901F00BFE0028F7D11149D5
:1011E00000204E600C7008618D6048610E4D0DE06E
:1011F00006EBC4002968009181788DF80110007811
:101200000A4A694601F08EFD0028E0D1641EE4B26E
:10121000EED2BDE8F84003480021054A0C3000F04A
:101220004BB80000B0280020B4490200E9250200B4
:1012300089230200BFF34F8F04480168044A01F478
:10124000E06111430160BFF34F8FFEE70CED00E05A
:101250000400FA058268C36893420AD082688388D2
:101260001A4003689A5C0A708168491C81600020FA
:1012700070470520704729B112B1531E134203D0A5
:10128000092070470E207047016083800021816033
:10129000C160084670478268C3689B1A828893427F
:1012A00008D8C36813400268D154C168491CC160A2
:1012B000002070470420704770B5114DAC6824B110
:1012C0002AB120B100232D780AE0082070BD072044
:1012D00070BD00BF03EBC30614F8266026B15B1C8B
:1012E000AB42F7DB042070BD03EBC305012604F815
:1012F000256004EB85046170A2610360002070BD6D
:10130000C82800202DE9F0478146089C1D46174655
:10131000884698074FF000060AD14DB102F01AFA3C
:101320002046244CA06184F800800020A5600BE0DA
:101330000720BDE8F08700BF00EBC001401C05F8A6
:10134000216005EB81010E754045F5DB08EBC80017
:1013500005EB80010320607001F11800002207EB0B
:101360004705E16001EBC203521C1E705E709F7066
:10137000586000EBC500032AF4DB4FF0FF3020611A
:10138000A670E6701420FFF77BFB03211420FFF703
:1013900098FB1420FFF77FFB0749C1F80090032159
:1013A0001120FFF78EFB0448001F006860610020D9
:1013B000BFE70000C8280020081501402DE9F843C8
:1013C00004461F480D461746816869B10278944269
:1013D00001D2052D02D20720BDE8F88304EBC40238
:1013E00011F82230012B01D00820F5E7814601EBEE
:1013F0008200407801281FD05FF0000602F09CFEBA
:10140000D9F80C10804601EBC800694602F0B6FE20
:10141000A0B1012100F8041B0A4910C0096880E846
:10142000E200D9F80C10009801EBC80148701420B4
:10143000FFF73CFB0020CFE72E46DFE70420CBE799
:10144000C828002004150140F8B5154C0546A068D1
:1014500050B121788D4201D30720F8BD05EBC501BD
:1014600010F82100012801D00820F8BD02F064FE28
:101470000646E068694600EBC60002F07FFE60B1F8
:10148000022101704560E06800EBC60100984870D9
:101490001420FFF70BFB0020F8BD0420F8BD00006E
:1014A000C828002001460148FFF7D4BE643100205F
:1014B00070B50446214888B01E460D0042603AD0FF
:1014C000A888296882B21E48FFF7D5FE002830D1CF
:1014D000A889A96882B21A481030FFF7CCFE00280C
:1014E00027D1202217496846FEF707FAA068069020
:1014F000207900B101208DF814008DF81C6060790E
:1015000000B10E208DF81500E0780290A0780390CD
:1015100020780190607800900B49684601F08AFDC0
:10152000002806D101F050FE04480121801C01F082
:10153000B9FD08B070BD0720FBE700006828002057
:1015400064310020B84802003D40020010B5044656
:10155000074801214470401C01F042FE112805D1CA
:101560002146BDE810400348FFF795BE10BD0000BE
:1015700068280020743100202DE9F04104460068FD
:1015800001F0CDFE2078174F012606FA00F03860F2
:101590000021606801F0BAFE1348144DC07DA069B7
:1015A000C5F82405607D217D0843C5F86C05D4E9A4
:1015B0000001C5F80C05C5F81415207D01280FD1D0
:1015C000E06801F0ACFE207B86403E600021A06810
:1015D00001F09CFED4E90201C5F80815C5F8100514
:1015E000BDE8F08108050050DC31002000200040FB
:1015F000F0B50C4693B01F210726ADF80010ADF8EA
:101600000410002750B1C17849070DD56A4602A9D8
:10161000FFF762FC002808D102AD02E00025ADF81A
:1016200000706CB1E07810B1304613B0F0BD01AA83
:101630000AA92046FFF750FC0028F6D10AAA02E0CA
:101640000022ADF80470BDF80400C3B2BDF800007C
:10165000C1B2284672DFE8E770B50D460499164618
:10166000040040D0F6B3414800224271C0E9033182
:10167000242231463E48FEF740F900F0BBF83C49D1
:101680003431A1F1100001602031816038215C38D3
:10169000FEF765F93648217838380170A1788170F5
:1016A000E178C17061784170D4E90412C0E9041294
:1016B000D4E90212C0E90212D4E90612C0E9061206
:1016C000616AD1B100F1AC0100F1B80241628A60F7
:1016D000636A1B880B80616A436A8988998000214C
:1016E000436A07E0FFE70E2070BD666AB668765C65
:1016F0005654491C9E888E42F7D8A16AD9B11C4A1B
:10170000AC32A2F10C018A608162A36A9B888B8053
:10171000A16A836A098819800021836A04E0A66AA5
:10172000B668765C5654491C9E888E42F7D894F869
:101730002C1080F82C10216A49B10C491431016237
:10174000226A52884A80216A026A09881180616887
:1017500021B10649891D4160616841602946BDE8A3
:10176000704003483838FFF743BF0000302800209E
:101770007C30002010B502881D4C102A18D00021A2
:10178000112A1BD0192A18D18079002815D1607927
:10179000012820D0022824D0032824D004280CD1EA
:1017A0002171E2680846002A07D0BDE810401047C2
:1017B000017D012901D18088208110BD6170808860
:1017C00021898842F9D1012006E021690029F4D05D
:1017D000BDE810400847022000F030F80028F4D19E
:1017E00010BD0320F8E7032020710420F4E7000077
:1017F0003028002002480021816181838177704771
:10180000302800200B4810B50078012810D10A4C70
:10181000607868B9607910B174DF002809D10120BF
:101820006070607900F00AF810B1216901B1884751
:10183000002010BD7C300020302800202DE9F04F22
:10184000724C87B00026607106A8069601F0B8FEBB
:101850000127082805D0002871D1069810B12770FB
:10186000C0E00696FFF7C6FF694D687810B1607951
:10187000012804D0A87848B16079022806D1E1682F
:1018800019B1E7700820884700E0E6706079DFF85A
:101890007C814FF0020A08F118084FF0030B012871
:1018A00006D1687840B108F1010001F021FE18B1BD
:1018B0006079022802D00AE084F805A0A87820B157
:1018C00008F1010001F014FE08B984F805B0287B86
:1018D0004FF0040920B96079032801D184F80590FC
:1018E000287E20B96079042801D166712671E168EB
:1018F00041B16079032801D0042803D1287808B1C8
:101900006078C0B1A67018216846FEF728F88DF8F7
:10191000006001968DF808600396607901280FD069
:10192000022817D03A4E2436A6F15C0703281ED0B1
:1019300004284DD13BE0A77007208847E3E752E039
:10194000ADF81260CDF804808DF80070ADF810602D
:1019500027713FE0CDF804808DF800702889ADF83C
:101960001200A888ADF8100084F804A032E0A88A1C
:10197000ADF81200288AADF810002548243002F096
:1019800077FC18B1287808B1607810B184F804B0F9
:101990001EE01F488DF808A0039687F803900021E9
:1019A0003838FFF725FE00281DD105202BE0A88B35
:1019B000ADF81000288CADF812001548243002F064
:1019C00057FC18B1287808B1607878B184F8049091
:1019D000607918B1684673DF002804D1E16809B165
:1019E00020798847002007B0BDE8F08F08488DF8BF
:1019F00008A0039687F8039000213838FFF7F8FD18
:101A00000028F0D106202071E2E7000030280020F5
:101A10007C30002070B5054601461C221048FDF7B9
:101A20006CFF104C00262670286838B10168A16050
:101A30004068E06004F108007ADF02E009480830FD
:101A40007BDF00280BD14FF6FF7060806670BDE829
:101A5000704004480021044A001DFFF72DBC70BDF2
:101A60004831002050280020D940020070B5204C99
:101A7000068800251D49E289102E16D00B46112E2E
:101A80005B681ED0122E2BD0502E19D130F8061FB5
:101A9000914215D1018B022912D1807E10F0010FE5
:101AA00013D0BDE8704000F045BC83884B80D0F86F
:101AB00016300B61D0F81A0048614D70002AF0D042
:101AC00070BD4FF6FF7048804D701846FFF7BCFCA4
:101AD0000028F5D0A1690029F2D0BDE87040084780
:101AE00050F8062F0A6140684861DAE75028002064
:101AF000483100207CB5054608880C4609309042E4
:101B000001D90C207CBD684671DF0028FAD12188FC
:101B10000820685420881B21401C80B22080295452
:101B20002088401C80B220802844DDF8011001602C
:101B3000BDF8051081802088801D80B220809DF82E
:101B4000001001B1012129542088401C2080002070
:101B50007CBD000010B50446FFF788FF214607480A
:101B600000F040F8204601F051FC2046FFF702FE4D
:101B70002046BDE8104000F0ABB800001C3000204B
:101B800030B5174B0D4604000FCB85B08DE80F0024
:101B900023D015B34FF6FF70A0822868A061002003
:101BA000A0752146684663DF002814D120788DF89F
:101BB00012000120ADF81000A21C04A9A0DF00282B
:101BC00009D12946204601F023FE002803D12946E9
:101BD000204602F05DF905B030BD0E20FBE70000A5
:101BE000A848020000281ED000291CD00A88102A0C
:101BF00014D0112A14D0502A15D131F8062F038A97
:101C00009A4202D10B8B022B0ED083889A420AD1C2
:101C10008369002B07D00A8B1A311847898801E0A5
:101C20004FF6FF7181827047897E11F0010100D06B
:101C300001218175704707B584B068B1828AA2F529
:101C40007F43FF3B0AD0827D42B1BDF81820142AA1
:101C500006D9072007B000BD0E20FBE70820F9E7F2
:101C6000002200920192029203928289039106A9B6
:101C70000291ADF8002001218DF80210808A69469A
:101C8000A6DFE7E77CB5114E0C004FF00005306091
:101C900015D06946002000F0AFF8002815D101A941
:101CA000012000F0A9F800280FD19DF8041009B117
:101CB000022003E09DF8001001B10B202070706835
:101CC00010B9FFF70AFA054628467CBD28280020EF
:101CD00010B51A4C0188606810290ED011292BD13B
:101CE000401E606028D1FFF7F8F9002824D0216851
:101CF000002921D0BDE810400847D0B900210122B9
:101D0000084600F0AFF808B107280FD107220221DA
:101D1000012000F0A7F808B1072807D1042202210A
:101D2000002000F09FF820B1072802D0216801B1FF
:101D300088476068401C606010BD000028280020B3
:101D400010B5032000F0FCF908B1062800D10020EE
:101D500010BD00002DE9F04707460024234802E0AB
:101D6000641C042C3FD250F82420BA42F8D1042C31
:101D700039D2DFF87C90DFF87C80A9F11006F06999
:101D800039B301290ED002292DD104EB440040447F
:101D90004578002D27D0F168002924D02846BDE8D9
:101DA000F047084704EB440118F80150884498F8BC
:101DB000011049B171680E4A01EB810149000F3AE7
:101DC000FFF7FCFA00B9777098F8021009F80410D0
:101DD000DFE7FFF739FB04EB4401414419F8040045
:101DE0008D78A842D5D0BDE8F08700007848020081
:101DF000182800203830002004280CD2074A126826
:101E0000074B13F8203001209840904300D0012068
:101E10000870002070470020FAE70000100500500D
:101E20007848020010B5042807D0072812D00A28E5
:101E300014D1BDE8104001F0D9BD094813214088F4
:101E400076DF09E0002809D00022BDE810401146E5
:101E5000FFF7F0B9FFF7D6FC0828F3D110BD00005A
:101E60000028002070B50023042810D20D4D00EB8F
:101E70004004012A02D101290CD00022094E00EBB6
:101E80004000304461B1012906D0022906D0072361
:101E9000184670BD0D30C2B22A55F9E74270F7E717
:101EA0008270F5E738300020044A01460020127A9B
:101EB000D20702D0084600F055B870470828002025
:101EC00070B50E462149054600204E60C1E9025218
:101ED000A9071BD50024012211462046FFF7C2FFA7
:101EE000641C042C02D20028F5D00FE070B97208EF
:101EF00004211748FFF764F940B9FFF74FF928B9F3
:101F00001248144A00211C30FFF7D6F9E9070AD01D
:101F1000114A4FF4F01111600F4B00221B1D1A6083
:101F20000D4A1032116000280FD108480B4A0021D9
:101F30001430FFF7C1F9002807D1BDE8704003480D
:101F40000121074A1830FFF7B7B970BD08280020F3
:101F5000884802007D210200080500501D2702006C
:101F60007D1102002DE9F05F07467448DFF8C89143
:101F70000022416809F10404251DD0F814C04FF473
:101F8000A01A4FF400334FF4802B01EB810E16465C
:101F9000182F12D2DFE807F00C1212334453607589
:101FA000778077808B8F8F8F8F8FB1B9BFC5CBCB69
:101FB0004FF4B01121602E600670A3E0C4F800A0B9
:101FC0002E60D9F8002082F4F012920309D5236024
:101FD0002E60022F02D14FF4E16209E04FF47A62E1
:101FE00006E02B602660022F34D000BF4FF4C87289
:101FF00007706420B2FBF0F0414300223CE0C4F8DB
:1020000000A02E60D9F8002082F4F012920304D5CB
:1020100023602E604FF44872EAE72B60266019E0D7
:10202000C4F800A02E60D9F8002082F4F0129203C8
:1020300002D523602E60D1E72B602660D6E7C4F876
:1020400000A02E60D9F8002082F4F0129203E4D5AB
:1020500023602E60C822CBE7C4F800A02E60D9F818
:10206000002082F4F012920302D523602E6001E07A
:102070002B602660077018E06046FFF79FF9024664
:1020800040E0514643E0D9F800002BEA000222600C
:1020900000F48020286008E0D9F800002BEA000155
:1020A000216000F48020286071460022E4E74FF4AC
:1020B000F01028601FE080468069FFF7C5F90246EE
:1020C000D7F111004FF4002700D012B127602E6025
:1020D00018E001280ED9C82110FB01F16420B1FBE2
:1020E000F0F1D8F80420D8F8180051430022FFF787
:1020F00065F902462F60266004E04FF4F01121607C
:102100002E6007701046BDE8F09F4FF4E01121608B
:102110002E602B600EE04FF4D01121602E605946E6
:1021200007E04FF4C01121602E60891001E04FF4E8
:10213000F01129602660E4E704050050082800201B
:1021400070B500210C4D012455F82120920002F1B8
:10215000A042D2F8006704FA01F3034000D0032341
:1021600026F4403646EA0343C2F80037491C0429E6
:10217000EAD3002070BD00007848020000780221F8
:10218000FFF7E8BD05494FF0FF3201EB8003082857
:102190005A6002D3084480F84C20704784310020F4
:1021A000F0B54FF0FF3512B10023082601E00823F7
:1021B0000C260D4C06E000BF04EB83077F687F1CF4
:1021C00004D05B1CB342F7D32846F0BD26185DB29D
:1021D00086F8345004EB8306002A7160F4D1E118CC
:1021E00081F84C00F0E700008431002002490844E7
:1021F00090F9340070470000843100202DE9F05F31
:10220000254801694A1C41D0826801EBC101DFF811
:102210008CB002EB810181464E68DBF800404769D3
:102220000079E11B21F07F45ED1CB0B9DFF870802B
:102230004FF48030C8F84403C8F804031120FEF7B7
:102240001FFC1120FEF727FC4FF0010AC8F800A080
:102250002F20FDF777F989F804A0B54200D2354662
:102260000E49E8193C3120F07F400860DBF800108F
:10227000001B091B21F07F4120F07F40C91C8142D7
:1022800008D9BDE8F05F1120FEF710BCBDE8F05F93
:1022900001F060BABDE8F09FC82800200415014095
:1022A000001001402DE9F04117880646B81D14467C
:1022B0000D46984202D90C20BDE8F08131880722F2
:1022C00006290AD34FF4486C4FF6FF73614501D9D4
:1022D000994202D17088062801D21046ECE7604589
:1022E00001D99842F9D1994203D0984201D0814254
:1022F000F3D80520E85520881221401C80B22080A8
:1023000029542088401C80B220804119308801F077
:10231000DDFE2188084480B220804119708801F0D8
:10232000D5FE2188084420800020C5E70022114600
:10233000FEF780BFF8B5124800F0B8F9104D00263E
:10234000104C103D30B16169B1B101208DF8000031
:10235000684610E0287820B1616969B18DF80060A5
:10236000F6E7687850B1A16800226868FFF726F8A0
:1023700010B1A16901B188472E70F8BD6168F3E71B
:1023800060280020483100202DE9F0410026012579
:10239000144C22E06068626900EBC607387805FAE1
:1023A00000F1114217D08A43626100F017FD024626
:1023B0003878236905FA00F1194002FA00F39942CE
:1023C00009D17978012901D0012100E00021514093
:1023D0007A6802B19047761CF6B220788642D9D34B
:1023E000BDE8F081B02800200E4910B58A78CC787D
:1023F0000023A24212D0521CD2B28A70022A00D10B
:102400008B70084A8B781C3252F82320026048698E
:10241000104420F07F404861012010BD036000207F
:1024200010BD0000C82800202DE9F043154E894654
:102430000024B768336920E003EBC30107EB810197
:102440004D68854202D9281A486018E0401B2C4488
:1024500000254D600D751D46D1F810C00B6ABCF10A
:10246000000F0AD009EB040828F07F48C1E9028C6C
:10247000D2F800C0C1F820C01560591CDCD133610E
:10248000BDE8F083C828002008B56846FFF70AF8C1
:102490000528FAD09DF8000008BD2DE9F041B821CB
:1024A0000B27092600250824062001F0E9FE3946FD
:1024B000072001F0E5FE3146082001F0E1FE294643
:1024C000092001F0DDFE2146BDE8F0410A2001F0BF
:1024D000D7BE10B50446C0B2FFF738F8204610BD8D
:1024E00008B51AA0FDF78AF86B211BA0FDF786F846
:1024F00022A0FDF783F869460F2001F013F99DF83B
:10250000000069281FD023A124A0FDF777F824A09C
:10251000FDF774F85A21102001F0B2FE694613202D
:1025200001F000F9DA21132001F0AAFE22A0FDF744
:1025300065F85C21112001F0A3FE24A0FDF75EF8F0
:10254000FFF7ABFF08BD25A1DEE700006D70752029
:10255000696E697428290A004C4D53364453332060
:1025600044656661756C74204164647265737320A0
:102570003A203078252E34780A00000054657374B0
:10258000696E6720436F6E6E656374696F6E2E2E81
:102590002E2000004661696C6564000025730A0006
:1025A00053657420416363656C65726F6D65746516
:1025B000722E2E0A00000000536574204779726F56
:1025C0006D657465722E2E0A000000004649464F64
:1025D0002053657475702E2E0A00000053756363D6
:1025E00065737366756C000070B5114C0646012565
:1025F000B540E068FEF728FF00280CD16169294248
:1026000007D1304600F0EAFB0028206904D02843B7
:1026100003E0A943616170BDA8432061606928435C
:102620006061D4E90210BDE870400022FEF7C6BE2A
:10263000B0280020F8B51C4C2078002832D0206942
:1026400028B10026E06820B1002526B112E001265D
:10265000F8E70125F9E7684651DF052805D030B1D4
:1026600000221146FEF7E6FD04E0012602E02169A2
:102670000098884795B96088ADF800006946A06861
:1026800061DF052805D030B100221146FEF7D2FDEA
:1026900004E0012502E0D4E902018847002EDAD0E7
:1026A000002DD2D0F8BD0000F42800200549408854
:1026B0000A88904204D34988884201D80120704793
:1026C000002070475828002030B51488E51C9D4232
:1026D00001D90C2030BD02250D5513881C245B1C2C
:1026E0009BB21380CC5413885B1C9BB213800128CF
:1026F00007D0022807D0032807D0042807D00720D6
:1027000030BD002004E0012002E0CD5401E00320B0
:10271000C8541088401C1080002030BD0348017A46
:10272000C90702D00078FFF71DBC704708280020B9
:102730002DE9F04726484FF0000980464578D0F84B
:1027400010A038E0D8F80C0000EBC50634782FE074
:1027500004EB44017068641C00EBC100B178E4B282
:10276000A14200D100240178022902D003291FD1FF
:1027700015E04068D8F8081000EBC00201EB8207B2
:10278000397DA9B101F0D8F987F8149010E000BFA5
:1027900000EBC00002EB80000375006A04E0D8F88B
:1027A0000820D8F810004B46471CF1D1C8F810009B
:1027B0007078A042CCD16D1EEDB2C3D2D8F8101003
:1027C000514502D00120BDE8F0870020FBE7000062
:1027D000C82800202DE9F04704463D4800278146DF
:1027E0004678D0F810A067E0D9F80C1001EBC605C8
:1027F0005CE0601C08D02246D9F8080004EBC20156
:1028000000EB8100046A2FE02878696800EB400241
:10281000401CC0B201EBC2012870AA78904200D1DE
:102820002F704A68D9F808C002EBC2000CEB800098
:1028300091F800C0BCF1010F3AD190F814C0BCF17E
:10284000000F35D1D1F808C0C0F808C0D1F80CC0CD
:10285000C0F80CC0D1F810C0C0F810C04969C161FF
:1028600099F8051001B187608368D9F814C0DFF8C2
:102870006480A3EB0C0121F07F41414502D2C36883
:10288000194407E0ACEB0301C36821F07F418B42A0
:1028900002D9591A416000E0476087600121C76092
:1028A0000175891E0162104601F010F9601CA0D16B
:1028B0002878697888429CD1761EF6B294D2D9F8ED
:1028C0001010514502D00120BDE8F0870020FBE741
:1028D000C8280020FFFF7F0092B0242280A101A819
:1028E000FDF70BF800240522864B11462046009484
:1028F000FEF708FD18B100221146FEF79BFC824D41
:102900000EAB05F1680007C883E807007F480A900E
:1029100020200B907D48032320300C904FF48060E2
:102920000D907B4A0AA90EA8FEF7C2FD18B100223D
:102930001146FEF77FFC774A40F6CD410320FFF7B2
:10294000BFFA18B100221146FEF774FC6946002058
:10295000FFF798F918B100221146FEF76BFC6B499E
:10296000002348224839082001F06AF818B10022F3
:102970001146FEF75FFC0A940B948DF828400AA8D4
:1029800060DF18B100221146FEF754FC624801F0E6
:102990004DF818B100221146FEF74CFC9DF80000DE
:1029A0005EA120F00F00401C20F0F00010308DF8E8
:1029B00000000B2268467CDF18B100221146FEF7AA
:1029C00039FC0A941020ADF828003C200B94ADF897
:1029D0002A00ADF82C404FF4C870ADF82E000AA8BC
:1029E0007ADF18B100221146FEF724FC4E48009011
:1029F00069464E48FFF7C4F818B100221146FEF7A9
:102A000019FCFEF785FB1C210AA8FCF7A8FF4FF470
:102A10002030CDE90A404FF470200C9003208DF84F
:102A2000340043480F9043481090ADF836408DF87D
:102A300038400AA8FEF7EEFF18B100221146FEF753
:102A4000F9FB31493CA00831FCF7D8FD01A93AA0B7
:102A5000FCF7D4FD39A0FCF7D1FD2B4936A0363167
:102A6000FCF7CCFD0320FEF7E9FE18B10022114669
:102A7000FEF7E0FB74350DF1280C95E80F008CE8AB
:102A80000F0000220AA9204800F010FA20B100220D
:102A90001146FEF7CFFB1FE01B4800F0D9F91BE001
:102AA0002748FCF7E3FE10F0FF01F9D031290DD0E3
:102AB00004DC0A29F4D00D29F2D003E0322908D031
:102AC0003F2909D01FA0FCF799FDE9E7FFF708FDB2
:102AD000E6E700F087FDE3E700F02CFDE0E700000B
:102AE000202020202020202020202A2A2020204CA6
:102AF000534D36445333204D4F434B555020202ADD
:102B00002A0A00008C2D0020F44702006C290020C6
:102B100025400200251E0200551B02006E5246355C
:102B200032205A494B544F00A53302001C3000207C
:102B30007D3402002D230200257300000A000000EE
:102B4000F0280020596F752073656C6563746564A7
:102B50002025630A0000000070B5144682880E46E6
:102B600005462088111D0144921C994201D8FE2A75
:102B700001D90C2070BD521C32542088FF21401C0A
:102B800080B2208031542088401C80B2208081197E
:102B9000288801F09BFA2188084480B22080AA8806
:102BA00042B1A96841B13044FCF762FE2088A9888F
:102BB00008442080002070BD072070BDF8B50E4687
:102BC000017814460546012901D1687830B1208882
:102BD000821C9A422DD8012902D006E00720F8BDB8
:102BE00069780144891C994223D8181A801E87B23B
:102BF000ADF800702188B01C084469467DDF0028CC
:102C0000EDD12878022805D1BDF80010B94201D8CD
:102C100009210AE00821012805D16878B84202D8C4
:102C2000ADF8000001E0ADF80070BDF80000FE282E
:102C300001D90C20F8BD2288401CB0542088401CCB
:102C400080B2208031542088401C2080BDF80010C4
:102C5000084420800020F8BD4907090E002806DA44
:102C600000F00F0202F1E02282F8141D03E000F1EF
:102C7000E02282F8001400F01F0201219140400977
:102C8000800000F1E020C0F88012C0F80011704709
:102C90002DE9F0410E46054600F034FC01240028E1
:102CA000284619D0FFF7A2FA1B490838084490F8C3
:102CB00054008009032802D0012805D006E01748F7
:102CC0000068AC40204201D1022100E003212846E7
:102CD000BDE8F04100F02DBB00F020FC002818D02A
:102CE0002846FFF783FA05460D4F4FF4807007EB37
:102CF000850100EB8500D1F8102580B242F0010279
:102D0000C1F8102500F02CFB002E02D0AC40C7F813
:102D10000443BDE8F081000084310020100500501C
:102D2000006000402DE9FC41DFF8A480044608EB78
:102D30000400002790F934001346C0170E46401CCB
:102D400001D0082740E0F27819462046FFF728FA1C
:102D50000546401C37D0B07848B1A00000F1A04033
:102D6000D0F8001721F00201C0F8001707E0002199
:102D70007378204600910A46019100F0A5FAF07898
:102D8000C0B11448317800EB8500D0F81025124B03
:102D90001A40C0F810254FF4F8524FF4403302EABD
:102DA000042203EA01410A43D0F810150A43C0F88F
:102DB000102509E008EB0500327810F84C1F41EAB5
:102DC0008211017000E004273846BDE8FC81000054
:102DD0008431002000600040FFE0FCFF03490968E7
:102DE000C14011F0010000D00120704710050050D3
:102DF00070B5114D287808B1082070BD0020411E23
:102E00002A18401CC0B282F834102028F8D30024BD
:102E10002046FFF7B7F9641CE4B20C2CF8D301216B
:102E20000620FFF719FF05494FF00040C1F80403E1
:102E300001202870002070BD843100200060004017
:102E400002480078002800D001207047843100201B
:102E500010B502680021C2F804110268C2F8081116
:102E60000268C2F81C110268C2F8241142790D4BA5
:102E700053F8222022B102684FF40073C2F80433E1
:102E800002680523C2F8003542790223C2EBC2046E
:102E9000054A02F824304079C0EBC00002EB800004
:102EA000417010BD94280020CC3200202DE9F04163
:102EB000054640790C46214EC0EBC00116F82110A2
:102EC00011B10820BDE8F08114B91D4901EB0014CF
:102ED0001C4F47F820206879391D41F820502146C1
:102EE000284600F0ABFE216840F20C60890001F139
:102EF000A041C1F800076168890001F1A041C1F853
:102F000000072968A068C1F82405D4E900122868E0
:102F1000C0F80815C0F80C25687957F8200020B1D2
:102F2000217B95F90400FFF797FE69790120C1EB39
:102F3000C10106F821000020C4E70000CC320020C7
:102F4000F8480200942800202DE9FF410F4604466E
:102F5000C1EBC7002C4901EB80054FF4927120466C
:102F60002D1D00F00FFA698A8046204600F00AFA0B
:102F70000026C4F82461C4F81C61C4F80861C4F8D0
:102F8000046158EA00003DD0B8F1000F01D00521DE
:102F900004E0287808B1022100E003211B4850F822
:102FA000270000F065FDE8781849091FA0B1AE7050
:102FB000174E4DCE8DE84D00A8680190E88902902B
:102FC000D4F8C404C4F8C404800701D5022000E08A
:102FD00004208DF80C0011E0E889AA89904211D3F1
:102FE0000096019602960396AE70287800B10120F3
:102FF0008DF80000A8680190E889029051F8271028
:1030000068468847BDE8FF81CC3200209828002020
:103010001C4902007CB50025069CCDE9004500F066
:1030200065FE7CBD7CB50125069CCDE9004500F020
:103030005DFE7CBD2DE9F041154C05460F46A07D97
:1030400010B10820BDE8F08105B9124D687FE07528
:103050002846FEF791FA676028690F4E206057B145
:10306000297FE07D08B10D4800E00D48C6F8040353
:103070000220FFF7F1FDE07D08B1082000E0042008
:10308000C6F800050120A07500206075DAE7000091
:10309000DC310020D848020000200040100302006C
:1030A000800002002DE9F05F454DEA7C12B111204D
:1030B000BDE8F09FE9740026E8602E75EA7D414C7A
:1030C0004FF001084FF4A2774FF4927A9AB362144A
:1030D000B2EB104F01D01020EAE74FF48873B146ED
:1030E000C4F81061C4F84461C4F83405C4F8381554
:1030F000C4F80080686848BB9B46B84659462046DD
:1031000000F04AF906464146204600F045F90746D8
:103110005146204600F040F901463E430E43EDD0B3
:10312000C4F81091C4F84491C4F8249185F8139020
:10313000B9BBC7BB0AE0FFE7687D08B900F004FC33
:10314000686828B14FF40170C4F804030020AFE7A9
:10315000D346AA465946204600F019F905464FF4D1
:103160008471204600F013F981464FF4A271204685
:1031700000F00DF9074649EA07002843EAD055EA6E
:10318000070007D100F032FB9AF813109AF81400E8
:103190008142DFD8C4F84461C4F824618AF813601E
:1031A00015B1032084E700E00FB10F2080E79AF803
:1031B00015000028404601D02060C7E76060C5E7E1
:1031C000DC3100200020004010B5044C607D002858
:1031D00003D100F0B9FB0120607510BDDC31002087
:1031E0002DE9F05F364C0027A27C12B11120BDE81A
:1031F000F09FA1740026A0602682E37D314D01225C
:103200005BB35303B3EB104F01D01020EFE74FF443
:103210009073C5F820614FF4AC7CC5F85861C5F8CF
:103220004405C5F84815AA606068A04608BB9A46E0
:10323000E1465146284600F0AFF804464946284684
:1032400000F0AAF80443F4D0C5F82061C5F858612D
:1032500000B10F2788F8126030E04FF48E7AC5F87D
:103260001C619046AA6000F001FE61684FF4807016
:1032700079B123E05D465146484600F088F810B920
:10328000208AA842F7D1208AA84204D000F0EEFD9F
:1032900001E08346A946A07C218A8842EAD8208A98
:1032A000584501D10F2708E04D465146284600F009
:1032B0006EF80028F9D0C5F80C80A674384696E759
:1032C000DC3100200020004030B541EA4201DDE958
:1032D000034541EA8301800041EA042100F1A04056
:1032E00041EA0541C0F8001730BD30B541EA42015E
:1032F000DDE9034541EA8301800041EA042100F150
:10330000A04041EA0541C0F8001730BD1CB50022BD
:103310000B46009211460192FFF7E7FF1CBD1CB55A
:10332000002100910B46012201911146FFF7DDFFBC
:103330001CBD800000F5E06000F1A040026822F4AE
:1033400040320260026842EA0141016070470000B9
:1033500001218140014801607047000008050050CC
:10336000034908B50844002101600068009008BDC9
:103370000060004002494058012800D000207047FA
:10338000006000404058002800D00120704740589D
:10339000002800D0012070474058002800D00120AC
:1033A0007047000070B516460D460BA0FCF726F9D5
:1033B0000B4901200024087005E0285DFEF7C6F8DF
:1033C0000028FAD1641CB442F7D30A20FEF7BEF8F5
:1033D0000028FAD170BD00007278203A2000000069
:1033E0000028002010B560B103280ED10220FEF79E
:1033F0005BFD002809D00022BDE810401146FDF712
:1034000019BFBDE8104000F0F1BA10BD70B5054617
:103410000088194C102812D011281AD0132824D053
:10342000522821D100231A4619466088A9DF0028B6
:103430001AD0BDE8704000221146FDF7FBBE072000
:10344000FEF732FD18B100221146FDF7F3FEA88801
:1034500009E00020FEF728FD18B100221146FDF713
:10346000E9FE4FF6FF70608070BD00231A4685218B
:1034700060887FDFDBE7000000280020007800285C
:1034800009D105483B21408876DF002803D000227F
:103490001146FDF7CFBE70470028002010B54179D6
:1034A000114AC1EBC10102EB81014FF4827221F894
:1034B000162F026831F812390024D45042790B4B90
:1034C00053F822204AB102684B69C2F8083302223D
:1034D0004A6102684969C2F80413016801220A625C
:1034E0000068426110BD0000CC320020942800200A
:1034F0000021425C0AB101207047491C0629F8D31B
:10350000002070470449084490F93400082801DB82
:10351000012070470020704784310020044908448E
:1035200090F93400082801D201207047002070472C
:103530008431002010B507A0FCF760F80BA0FCF761
:103540005DF811A0FCF75AF8BDE8104015A0FCF793
:1035500055B800002020202020434F4D4D414E44BF
:10356000204C49535420200A0000000031203A200A
:1035700020496E697469616C697365204163636594
:103580006C204779726F0A0032203A202047657418
:1035900020496E7374616E7469616C20446174615A
:1035A0000A0000003F203A20205072696E742043C8
:1035B0006F6D6D616E64204C6973740A00000000C9
:1035C00006490979490701D40820704720B1044908
:1035D00049780160002070470E2070477028002055
:1035E000F43100202DE9F0412DED028B8AB004A9C1
:1035F000282000F097F8002872D19DF8104004A907
:10360000292000F08FF800286AD19DF8100044EAC4
:10361000002000B201F004F89FED348B53EC182B1E
:1036200000F0A6FE00F072FE324C04A920602A20B1
:1036300000F078F8002853D19DF8105004A92B20F1
:1036400000F070F800284BD19DF8100045EA0020EA
:1036500000B200F0E5FF53EC182B00F089FE00F0FB
:1036600055FE606004A92C2000F05CF8002837D1DA
:103670009DF8105004A92D2000F054F800282FD1F7
:103680009DF8100045EA002000B200F0C9FF53EC9D
:10369000182B00F06DFE00F039FEA046A06001F08E
:1036A0002BF806460F46D8F8040001F025F804462A
:1036B0000D46D8F8000001F01FF841EC100B8DE822
:1036C000F00053EC102B0CA105A8FBF7A3FF05A9F4
:1036D0000EA0FBF793FF142205A91148FEF7ABFAE1
:1036E0000AB0BDEC028BBDE8F0810000CE35CCD035
:1036F000581F8A400C29002025322E32662C253294
:103700002E32662C25322E326620000061636365FE
:103710006C2064617461203A2025730A0000000067
:103720001C3000201CB50C468DF804000120034617
:10373000009001AA6B210648FFF774FC002806D10F
:103740000090012322466B210148FFF763FC1CBD5A
:10375000F447020070B5012670044FF0E021002507
:10376000C1F88001084C4010C4F84803C4F80803AD
:1037700066602F20FBF7E6FEA660044C2F206561F3
:10378000FBF7E0FE257170BD00100140C828002045
:1037900030B44179134AC1EBC10102EB81010268E7
:1037A0000B7AC2F8883502680123136200220A7579
:1037B0004FF4847321F8163F036831F812491A5107
:1037C0004279094B53F822204AB103684A69C3F889
:1037D000082304224A6102684969C2F8041330BC14
:1037E00000F0DABBCC3200209428002006480021EB
:1037F000C0F80811D0F818150448037DC268D154E8
:10380000017D491C0175704700200040DC3100201B
:1038100030B58FB00024054607949DF81C001C218C
:1038200020F00F00401C20F0F00010308DF81C003C
:103830009DF81D0020F00F00401C20F0F00010301B
:103840008DF81D009DF81E0020F00600801C8DF8EC
:103850001E006846FCF783F89DF80000019440F0D4
:1038600010008DF8000007A8CDE9044003940694E9
:1038700028788DF83A000320ADF838000D949DF8B3
:103880003400142120F00F00401C20F0F000103014
:103890008DF834009DF8350020F00F00401C20F01A
:1038A000F00010308DF835009DF8360020F006004D
:1038B000801C20F0180040F001008DF8360008A8A8
:1038C000FCF74DF80EA808900DA809900120ADF85E
:1038D00028001420ADF82A40ADF82C00688805F1C6
:1038E0000C0308AA6946A2DF0FB030BD30B441799D
:1038F0000B4AC1EBC10102EB81010268D2F8182525
:10390000CB684C8A1A554A8A521C4A824A8A098ACA
:103910008A4202D230BC00F03FBB30BC704700008E
:10392000CC3200201FB501218DF8080005488DF824
:103930000010C16801910021C174D0E900126846ED
:1039400090471FBDDC31002004480021C0F824113D
:10395000C0F80811012101607047000000200040FC
:1039600000F01ABB2DE9F0410746806A14468846EC
:10397000C8B3002531E000BFB96A05EB450001EB93
:103980008006B088801CFE2802D90C20BDE8F0819A
:103990002288401C08F8020020881622401C80B2B1
:1039A000208008F800202088401C80B2208000EB96
:1039B0000801308800F08AFB2188084480B220800A
:1039C000B28842B1B16871B14044FBF751FF208821
:1039D000B188084420806D1CEDB297F82C00A842F5
:1039E000CAD80020D2E7FFE70720CFE710B50020B4
:1039F000FEF75AFA18B100221146FDF71BFCFEF73C
:103A00009FF918B100221146FDF714FC3CDF002895
:103A100005D00022BDE810401146FDF70BBC10BDDB
:103A200010B508461146AFF3008010BD18B1034928
:103A3000C860002070470E2070470000F428002066
:103A400070B509B18C0701D0072070BD064C012567
:103A5000A16062800549636010DF0028F5D1257000
:103A600016202EDF70BD0000F4280020213A02004D
:103A7000F0B44279124DC2EBC20205EB82025478D7
:103A8000104A114E52F82430002256F8244012E019
:103A900013F832608E420DD103EBC20143794A78AC
:103AA000C3EBC30305EB83035A704968002904D0B4
:103AB000F0BC0847521C9442EAD8F0BC70470000A2
:103AC000CC3200209C28002008490200F0B5194C97
:103AD00000EBC001A36803EB810521694A1C0AD0F1
:103AE00001EBC10603EB86076A687E68B24204D820
:103AF000B21A7A6029622061F0BD0C4602E00C46E1
:103B0000316AD21B4E1C0DD001EBC10703EB8706B7
:103B100077689742F3D301EBC10603EB860677681B
:103B2000BF1A77606A60296204EBC40103EB81016C
:103B30000862F0BDC828002070B51C4B1A699C684B
:103B40001546114607E0814208D00A4601EBC2063D
:103B500004EB8601096A4E1CF5D170BD002EFCD025
:103B60008A420DD105EBC50004EB8000006A1861A4
:103B7000401C05D10E4D0120A86000255D615871E3
:103B800001EBC10004EB800002EBC202416804EBD0
:103B90008202006A1062421CDFD000EBC00004EB1E
:103BA000800042681144416070BD0000C8280020B8
:103BB000001001402DE9F0411E4C2569681C37D0EA
:103BC0001D48002601686069081A20F07F4718E048
:103BD000A16805EBC50001EB80025068B84212D81D
:103BE000156AA3693F1A064443B1D2E90601984712
:103BF00038B100221146FDF71DFB02E0D2E90610A4
:103C00008847681CE4D1A178E078814206D1401C45
:103C1000C0B2E070022801D10020E0700548E178D0
:103C20001C3040F82160BDE8F0411420FCF73EBF95
:103C3000BDE8F081C8280020041501402DE9F041BD
:103C40000C46096840F20C60890001F1A041C1F8FE
:103C500000076168890001F1A041C1F800072068F0
:103C6000FFF776FB6068FFF773FB216840F20D6099
:103C7000890001F1A041C1F800076168890001F1E4
:103C8000A041C1F800070420FBF720FCDFF85880B2
:103C900000250126A8F104072079D8F80010C140BA
:103CA00011F0010F02D0002D1BD00FE0207806FA92
:103CB00000F038600420FBF709FC2068FFF748FBA0
:103CC0000420FBF703FC6D1C092DE5DB2079864001
:103CD0003E600420FBF7FAFB6068BDE8F041FFF7A7
:103CE00037BBBDE8F0810000100500502DE9FF4F03
:103CF000054640798B46C0EBC00181B0544800278F
:103D0000DFF848918DF8007000689A4609EB81044D
:103D1000B846241DC005C00D12D0103840B200288E
:103D200006DA00F00F0000F1E02090F8140D03E037
:103D300000F1E02090F800044609012E01D109E0CD
:103D40000426684636DF022808D018B10022114642
:103D5000FDF770FAA07818B1012703E072B6F9E711
:103D60000120A070012E0AD062B69DF8000037DF56
:103D7000022804D018B100221146FDF75BFA1FB1EA
:103D8000112005B0BDE8F08F84F804B0A4F80CA0B1
:103D90000398A060A4F80E800E9961700F992170AD
:103DA00084F80380207848B100212846FFF760FEA0
:103DB0006879284951F8200010B144E00121F4E766
:103DC000207808B1022000E00320834640F6FF7906
:103DD00068790026C0EBC0011C4800EB81073F1D3D
:103DE000798A2868FFF7CEFA82464FF492712868E4
:103DF000FFF7C8FA761C4E4501D3012100E00021EF
:103E0000014351EA0A00EBD091F0010F04D1286878
:103E1000C0F824814FF0050B608A296841F80080C2
:103E200059462846FFF724FEE07830B184F8028036
:103E300009A0FBF7E3FB0320A3E7E089A1898842FF
:103E4000C6D384F8028000209BE70000CC3200201B
:103E500004ED00E0942800204E52465F4552524F38
:103E6000525F494E5445524E414C0A00064A0020CA
:103E7000C2F81C010548038A8168C95C038A5B1C7F
:103E80000382C2F81C15704700200040DC3100207E
:103E900030B58FB005461C216846FBF760FD002455
:103EA0009DF80000019440F00C008DF80000039490
:103EB00004940594069428788DF836000220ADF815
:103EC00034000C949DF83000142120F00F00401CA9
:103ED00020F0F00010308DF830009DF8310020F017
:103EE0000F00401C20F0F00010308DF831009DF8DC
:103EF000320020F00600801C20F0180040F0010085
:103F00008DF8320007A8FBF72AFD0DA807900CA832
:103F100008900120ADF824001420ADF82640ADF83B
:103F2000280068882B1D07AA6946A2DF0FB030BDA4
:103F30004179074AC1EBC10102EB81014A8A521C57
:103F40004A824A8A098A8A4201D200F015B870472B
:103F5000CC3200201FB500218DF8080005488DF8EF
:103F60000010826801928174D0E90012684690477F
:103F70001FBD0000DC3100204179064AC1EBC101C0
:103F800002EB81010268CB68498A595CC2F81C15B2
:103F900000F002B8CC32002070B5054640791F49C8
:103FA000C0EBC00001EB80042868D0F8001221F0BB
:103FB0000301C0F80012608A218A401C241D884237
:103FC00001D1607868B101262868D0F80012314329
:103FD000C0F80012207C20212174296801220A5097
:103FE00070BD4FF48270022660822968608A0022C8
:103FF0000A5068790A4951F8200048B12868616977
:10400000C0F808130220606129686069C1F80403E0
:1040100004212846FFF72CFDD6E70000CC32002013
:10402000942800200178022901D0012904D100221E
:1040300040681146FDF7FEB8704700001CB50178D6
:10404000204C012909D0022926D0002923D121465C
:104050001D48FDF7FFF828B328E0406801781A48AA
:104060001038FDF718F920B101218DF800100190EA
:1040700009E0154810388168C068401A012805D148
:1040800000208DF800006168684688470D480121CE
:10409000801CFFF707F81CBD02218DF80010C068D6
:1040A00001900BE001210748FFF79AF80648816864
:1040B000C0688842EFD103208DF80000616868462F
:1040C00088471CBD68280020743100200870000A51
:1040D000487002207047000038B515494888A0F59F
:1040E0007F42FF3A23D04A78124C521CD2B24A7017
:1040F000237B93420AD3083175DF002817D0A169CA
:10410000002914D001B0BDE83040084700254D70AB
:10411000217C29B13B2176DF10B1A16901B188472B
:104120006169002903D08DF800506846884738BD82
:1041300050280020483100200F480068C005C00DFD
:1041400013D0103840B2002806DA00F00F0000F15A
:10415000E02090F8140D03E000F1E02090F8000456
:104160004009012803D0032803D002207047002013
:10417000704701207047000004ED00E0427883782A
:10418000521C934200D100220378934201D10020B7
:1041900070470A604168407800EB400001EBC000C6
:1041A00070472DE9FC411646DDE90854CDE900547D
:1041B0001F468046022200F00CF8002807D1CDE906
:1041C00000543B4610223146404600F002F8BDE85C
:1041D000FC812DE9FC5F0026DDE90C4B99469246F7
:1041E0008E4680462788354630E0D8F80400002205
:1041F00000EB850069460068019001A865DF002892
:1042000030D19DF8000050451FD10EB1002100E0D3
:104210000221228808441118594522D846B9521C57
:1042200090B2208009F800E02088401C2080012600
:10423000218801A801EB0902694665DF002811D138
:1042400020889DF80010084420806D1CB8F80000FC
:10425000A842CADC56B12088C01B401E80B2FF288D
:1042600002D90C20BDE8FC9F09F807000020F9E7FF
:10427000017911B9007B002800D0012070470000AF
:1042800013B582B0044602469DF80C100BA0FBF754
:10429000B5F90120034600908DF8044001AA6B2176
:1042A0000E48FEF7BFFE002806D10090012303AAA6
:1042B0006B210A48FEF7B6FE04B010BD7772697430
:1042C000696E6720307825303278206F6E20524535
:1042D00047203078253032782E2E0A00F44702002D
:1042E00010B500290AD00878002807D0054878447E
:1042F000FBF73AFF002801D0002010BD02487844A7
:1043000010BD0000BA070000B207000021F0004213
:10431000A2F16052B2F5801F01F0004328BFD2F134
:104320007F6C0BD95FEA001C43EAC20242EB50707B
:1043300018BF704728BF20F001007047B2F5801FFA
:10434000BCBF184670474FEA410C1CF5001F02D253
:10435000084600F047BA70B500F079F9000000890E
:10436000FFF7F6BF4FF00040A0F580007047000057
:104370002DE9C04130B4DFF8A0C23CEA111418BFE7
:104380003CEA131400F0EC8081EA03051CEA1114E6
:1043900044EAD57418BF1CEA131500F0C780A4EBDB
:1043A00005044FF0004545EAC12145EAC32341EA2F
:1043B000505143EA525304F17F74994204F500349A
:1043C0004FEAC0204FEAC22208BF904200F09C8012
:1043D0004FEA13650FF24016765D4FEA134506FB70
:1043E00005F7C7F1807706FB07F74FEAD737A7FB3A
:1043F00003687642C8F58038A7FB06CE38BFA8F11F
:10440000010807FB08E64FF0000EA6FB028CE6FB56
:1044100003CEDCF1000CCEF1004E38BFAEF1010E40
:10442000A6FB0C584FF000074FF00005E6FB0E8787
:10443000A1FB08C6A0FB07CE16EB0E0645F1000552
:10444000E1FB076515F1E04E7EBFA4F580345FEA1D
:1044500046066D4116F1800745F100054FEA172722
:104460004FEA066647EA0567A6F1DE46B6F1805FC9
:104470004FEA15251FD9384624F0010C05EBC4710D
:10448000BCF1FE6F01EB0C1102D8F0BCBDE800815D
:1044900024425CBF01F5801E9EEAC47F02D4F0BCBA
:1044A000BDE80081244238D4F0BCA1F1C041BDE890
:1044B000004100F01AB94FEAD22242EA43524FEAD1
:1044C000D323A7FB02864FEAD02040EA415007FBE6
:1044D00003661EEA0E0F4FEAD12105FB026658BFA4
:1044E000A6EB0056B6EB00564FEA520E4EEAC37EDC
:1044F00018EB0E0E56EB530EBDD518EB02085E41BD
:104500007F1C55F10005B6E74FF480154FF000070A
:104510004FF000064FF00008ADE7F0BC4FF0000090
:1045200001F1C04101F00041BDE8008111EA0C1F1A
:104530000CEA131500D00CE013EA0C1F00F02580E4
:104540004FF00000F0BC81EA030101F00041BDE83A
:104550000081F0BCBDE8004181EA030100F0C5B86C
:10456000F0BCBDE8004170B500F071F8097EFC3E7A
:1045700000F007B881EA03014FF0000001F00041AC
:10458000704781EA030100F0B0B8F0BCBDE800411B
:104590004FF0000021497047FFFDFBF9F7F5F4F2F9
:1045A000F0EEEDEBE9E8E6E4E3E1E0DEDDDBDAD8CE
:1045B000D7D5D4D3D1D0CFCDCCCBCAC8C7C6C5C42C
:1045C000C2C1C0BFBEBDBCBBBAB9B8B7B6B5B4B343
:1045D000B2B1B0AFAEADACABAAA9A8A8A7A6A5A42E
:1045E000A3A3A2A1A09F9F9E9D9C9C9B9A999998F2
:1045F0009797969595949393929191908F8F8E8E95
:104600008D8C8C8B8B8A8989888887878685858421
:1046100084838382828181800000FF070000F87F0D
:1046200010F0004248BF4042B0FA80F310FA03F1A4
:104630000AD0C3F11D0303F580634FEA415002EB3A
:10464000035202EBD12170474FF0000070470EF18A
:10465000020E2EF0030E5EF8046B364205D4012ADA
:1046600043EB030515F5001F12D8012841EB010C9F
:104670001CF5001F0CD80ED14FEAD17C15F5001F98
:104680000CEB4C0C0CF1020C08BF4CEBD37C04E09F
:104690004FF0080C01E04FEAD37C0CEB4C0526FAF6
:1046A00005F606F00706B6F1040C06D20EEB860CF2
:1046B000BDE870404CF0010C6047DFE80CF0090BDE
:1046C00002024FF000414FF00000A1F5002170BD43
:1046D00019461046012851EB010418BFD4F5001407
:1046E00084BF002001F0004170BD0808A0F5001152
:1046F0004FEA31017047000043004FEAD30C4FEA04
:104700003C0C43401FBF40070CF1605113F0FE4FBB
:1047100070471CF0006F03D100200CF0004170477F
:104720000CF0004343EA507010B540EACC0000F0B2
:104730000EF800BF000000924FEA0001FFF7D5BF5E
:104740004FF000414FF00000A1F5002170470EF13D
:10475000020E2EF0030E5EF8044B244204D44FEAFE
:104760004102B2F17F4F11D84FEA4003B3F17F4FBE
:104770000CD80ED14FEAD07CB2F17F4F0CEB4C0C31
:104780000CF1020C08BF4CEBD17C04E04FF0080C9C
:1047900001E04FEAD17C0CEB4C0324FA03F404F063
:1047A0000704B4F1040C06D20EEB840CBDE81040F3
:1047B0004CF0010C6047DFE80CF0070802024FF0F4
:1047C0000040A0F5800010BD0846420018BFD2F19D
:1047D000807288BF00F0004010BD4FF04070E1EEE5
:1047E000100A7047FF2141EAD050C0057047FBF71F
:1047F00010BA000000300040030000003D3D3D3D88
:104800003D3D3D3D3D3D3D3D3D3D3D3D3D3D3D3DD8
:104810003D3D3D3D3D3D3D3D3D3D3D3D3D3D3D3DC8
:104820003D3D3D3D3D3D3D0D0A002D2D2D2D2D2DB8
:104830002D2D2D2D2D2D2D2D2D2D2D2D2D2D2D2DA8
:104840002D2D2D2D2D2D2D2D2D2D2D2D2D2D2D2D98
:104850002D2D2D2D2D0D0A0A00000000080605073C
:104860000100000000509D00190000001A00000027
:1048700000006806010000000D0000000E000000AE
:104880000F000000100000000D000300551D020085
:104890000E000300551D02000F000300551D02000D
:1048A00010000300551D02009ECADC240EE5A9E09D
:1048B00093F3A3B50000406E06000000080000005E
:1048C00007000000050000000000000000000000DC
:1048D00000009D000300000006000000080000002A
:1048E00007000000050000000000000000000000BC
:1048F00000009D0003000000000000000100000017
:104900000000980101000000020000000500000006
:10491000040000000300000003000000020000008B
:104920000000000000000000000000000001000086
:10493000790E02000102000091370200020100001E
:10494000313F020001020000913702000001000027
:10495000793F02000403000000000000050400008D
:104960009D340200010200006139020003020000D0
:10497000ED38020004030000000000000504000000
:104980009D34020003000000ED3802000200000028
:10499000313F020005000000610E0200030000002C
:1049A000610E020002000000610E0200050000001E
:1049B000610E0200030000003031323334353637E7
:1049C0003839414243444546403058003031323353
:1049D0003435363738396162636465664030780053
:1049E00004000008000000000000000200010000B8
:1049F0001000000002400000000000A000000000C5
:104A000005400000000000C8000000000C4000004D
:104A10000000409C00000000194000000020BCBEC7
:104A20000000000034400000BFC91B8E00000004DD
:104A3000B5400000504BCFD06607E2CF0100000028
:104A40006C4100003E8251AADFEEA7340100000055
:104A5000D9420000DCB5A0E23A301F97FFFFFFFF0C
:104A6000B4450000FD25A0C8E9A3C14FFFFFFFFF2B
:104A7000FF3F00000000008000000000FF3F00003A
:104A80000000008000000000C44A0200002800204E
:104A90000C0100003CF40100D04B02000C29002066
:104AA0003C4A000058F401001C00000043000000D4
:104AB000F8FFFFFF0C0000000E0000000F000000D8
:104AC0002E0000000000FFFF0100020000000000B7
:104AD00000000000000000000000000000000000D6
:104AE00000000000000000000000000000000000C6
:104AF000000000000000000000000000FFFF0000B8
:104B000000000000000000000000000000000000A5
:104B10000000000000000000000000000000000095
:104B20000000000000000000000000000000000085
:104B30000000000000000000000000000000000075
:104B40000000000000000000000000000000000065
:104B50000000000000000000000000000000000055
:104B60002C4902003C4902006449020084490200C9
:104B70009C4902000000000000000000000000004E
:104B80000000000000000000000000000000000025
:104B90000000000000000000000000000000000015
:104BA0000000000000000000000000000000000005
:104BB00000000000000000000000000000000000F5
:104BC0000000000000000000000000000090D00382
:040000050001F40101
:00000001FF
