:020000040001F9
:10F00000B8730020EDF50100F5F50100F7F50100FA
:10F01000F9F50100FBF50100FDF50100000000001D
:10F02000000000000000000000000000FFF50100EB
:10F03000000000000000000001F6010003F60100DE
:10F0400005F6010005F6010015FF0100CDFD0100E8
:10F0500005F6010005F60100DDFB010005F60100E3
:10F0600005F6010005F6010005F6010005F60100B0
:10F0700005F6010005F6010005F6010005F60100A0
:10F0800005F6010099FD010005F6010005F60100F5
:10F09000DDFD010005F60100E5FD010005F60100BA
:10F0A00005F6010005F6010005F6010005F6010070
:10F0B00005F6010005F60100000000000000000058
:10F0C00005F6010005F6010005F6010005F6010050
:10F0D00005F6010005F60100000000000000000038
:10F0E0000000000000000000000000000000000020
:10F0F0000000000000000000000000000000000010
:10F1000000000000000000000000000000000000FF
:10F1100000000000000000000000000000000000EF
:10F4000000F002F800F06AF80AA090E8000C8244CC
:10F410008344AAF10107DA4501D100F05FF8AFF2A9
:10F42000090EBAE80F0013F0010F18BFFB1A43F0E2
:10F4300001031847EC6000000C6100000A444FF023
:10F44000000C10F8013B13F0070408BF10F8014B43
:10F450001D1108BF10F8015B641E05D010F8016B88
:10F46000641E01F8016BF9D113F0080F1EBF10F8EC
:10F47000014BAD1C0C1B09D16D1E58BF01F801CB0F
:10F48000FAD505E014F8016B01F8016B6D1EF9D592
:10F490009142D6D3704700000023002400250026A7
:10F4A000103A28BF78C1FBD8520728BF30C148BFE7
:10F4B0000B607047642900F01581782900F04E81B7
:10F4C000632900F01783732900F01C830020704724
:10F4D0001FB505F01AFF1FBD10B510BD00F044FBAD
:10F4E0001146FFF7F5FF03F0EBF800F062FB03B401
:10F4F000FFF7F2FF03BC00F069FB0000401E00BFF5
:10F5000000BF00BF00BF00BF00BF00BF00BF00BF03
:10F5100000BF00BF00BF00BF00BF00BF00BF00BFF3
:10F5200000BF00BF00BF00BF00BF00BF00BF00BFE3
:10F5300000BF00BF00BF00BF00BF00BF00BF00BFD3
:10F5400000BF00BF00BF00BF00BF00BF00BF00BFC3
:10F5500000BF00BF00BF00BF00BF00BF00BF00BFB3
:10F5600000BF00BF00BF00BF00BF00BF00BFC5D1CC
:10F5700070470000401E00BF00BF00BF00BF00BFBB
:10F5800000BF00BF00BF00BF00BF00BF00BF00BF83
:10F5900000BF00BF00BF00BF00BF00BF00BF00BF73
:10F5A00000BF00BF00BF00BF00BF00BF00BF00BF63
:10F5B00000BF00BF00BF00BF00BF00BF00BF00BF53
:10F5C00000BF00BF00BF00BF00BF00BF00BF00BF43
:10F5D00000BF00BF00BF00BF00BF00BF00BF00BF33
:10F5E00000BF00BF00BFC5D1704700000948804779
:10F5F00009480047FEE7FEE7FEE7FEE7FEE7FEE715
:10F60000FEE7FEE7FEE7000004480549054A064B11
:10F610007047000029FE010001F40100B83300200A
:10F62000B8730020B8530020B85300200FB4044929
:10F6300010B503AA029800F069FA10BC5DF814FB3B
:10F640001829002070B5044685690068C10601D5F7
:10F65000302600E02026C00707D070BDD4E9012184
:10F6600030469047206A401C20626D1EF6D570BD62
:10F6700070B5044685690078C00707D170BDD4E92C
:10F68000012120209047206A401C20626D1EF6D583
:10F6900070BD70B50C460546012A05D02878800655
:10F6A00000D5EA69002302E0012305E05B1C9342D8
:10F6B00002D2E05C0028F9D1A869E618C01AA86156
:10F6C000286A184428622846FFF7BCFF04E0D5E901
:10F6D000012114F8010B9047B442F8D32846FFF7F4
:10F6E000C7FF70BD2DE9F04106460024106875295A
:10F6F000314616A510D0AFF30080002802DA404250
:10F7000013A507E031688A0701D512A502E0490771
:10F7100004D511A5012401E0AFF3008000210A22E5
:10F7200006F1240709E0B0FBF2FCB0FBF2F302FBA8
:10F730001C00303078541846491C0028F3D1234669
:10F740002A463046BDE8F04100F071B900000000E3
:10F750002D0000002B0000002000000070B50446C2
:10F760000D4621461068AFF300802188090502D5B7
:10F770000F4A7A4402E00E4A7A440E32002104F124
:10F78000240305E000F00F060009965D5E54491C55
:10F790000028F7D120780023000704D5702D02D06F
:10F7A00009B1022311322046BDE8704000F03FB994
:10F7B0006E5D00002DE9F05F894604464FF0000AB7
:10F7C000DFF824B1FB44C0F820A02046E168884758
:10F7D00000287DD0252806D0D4E901219047206A51
:10F7E000401C2062F1E700255F462046E16888471B
:10F7F0002028064607DB312E05D2B81910F8200C58
:10F8000008B10543F1E7A80701D525F00405C4F8C0
:10F810001CA00027C4F818A02A2E09D0304600F0FA
:10F820006BFC38B304EB8708303EC8F8186019E069
:10F8300059F8041B204604EB87029161E168884770
:10F84000012F064618D1E069002820DA25F02005AE
:10F850001DE0D8F8180000EB800006EB40003038BF
:10F86000C8F818002046E1688847064600F044FCC6
:10F870000028EED1012F0AD02E2E08D12046E168B3
:10F8800088477F1C0646022F45F02005C4DBA0698F
:10F89000002803DA404245F00105A061E80701D0E5
:10F8A00025F01005A6B1A6F14100192802D820368E
:10F8B00045F400654A463146204625604D46FFF72F
:10F8C000F9FD60B1012807D0ED1D25F0070000E02B
:10F8D00007E000F1080978E705F1040975E730460B
:10F8E0007AE7206ABDE8F09F445D0000032A40F2F9
:10F8F000308010F0030C00F0158011F8013BBCF1D2
:10F90000020F624498BF11F801CB00F8013B38BFE9
:10F9100011F8013BA2F1040298BF00F801CB38BFF7
:10F9200000F8013B11F0030300F02580083AC0F015
:10F93000088051F8043B083A51F804CBA0E80810BD
:10F94000F5E7121D5CBF51F8043B40F8043BAFF3F0
:10F950000080D20724BF11F8013B11F801CB48BF4A
:10F9600011F8012B24BF00F8013B00F801CB48BF80
:10F9700000F8012B704710B5203AC0F00B80B1E8B9
:10F980001850203AA0E81850B1E81850A0E81850D4
:10F99000BFF4F5AF5FEA027C24BFB1E81850A0E8DD
:10F9A000185044BF18C918C0BDE810405FEA827CF7
:10F9B00024BF51F8043B40F8043B08BF7047D2070E
:10F9C00028BF31F8023B48BF11F8012B28BF20F8AF
:10F9D000023B48BF00F8012B70474FF0000200B512
:10F9E000134694469646203922BFA0E80C50A0E862
:10F9F0000C50B1F12001BFF4F7AF090728BFA0E810
:10FA00000C5048BF0CC05DF804EB890028BF40F8DB
:10FA1000042B08BF704748BF20F8022B11F0804F1D
:10FA200018BF00F8012B70477047704770472DE9E9
:10FA3000F0470D4699469246044600F124080168B5
:10FA4000880604D5E06921F01001216000E0012062
:10FA5000A84201DD471B00E00027A1697A1902EBEB
:10FA60000900081AA0612078C00602D42046FFF7DA
:10FA7000E9FD002608E0D4E901211AF806009047C4
:10FA8000206A401C761C20624E45F4DB2078C006BC
:10FA90000AD52046FFF7D6FD06E0D4E90121302043
:10FAA0009047206A401C2062381EA7F10107F4DC51
:10FAB00007E0D4E9012118F805009047206A401CAE
:10FAC0002062281EA5F10105F3DC2046FFF7D0FDDA
:10FAD0002078000602D50220BDE8F0870120FBE770
:10FAE00010B5436913B1AFF3008001E0FFF7D1FD1A
:10FAF000012010BD127800F124010A7000224A7022
:10FB00000122EDE711684FF0FF32E9E7074B70B5CE
:10FB10000D467B4400F011F80446284600F020F81A
:10FB200010B14FF0FF3070BD204670BD712600004F
:10FB300001694A1C02610878704700B58FB0CDE9B1
:10FB400001310021059105497944CDE903101146A1
:10FB50006846FFF72FFE0FB000BD0000E5FFFFFF76
:10FB6000007B00F080007047754600F02BF8AE4631
:10FB700005006946534620F00700854618B020B5B9
:10FB8000FFF742FDBDE820404FF000064FF00007B0
:10FB90004FF000084FF0000B21F00701AC46ACE835
:10FBA000C009ACE8C009ACE8C009ACE8C0098D46A2
:10FBB000704710B50446AFF300802046BDE8104002
:10FBC000FFF795BC004870475433002001491820C6
:10FBD000ABBEFEE726000200704700002DE9FE4F95
:10FBE0000026B1464FF4807002900125002414E0F5
:10FBF000029803F07BFB50B1012101FA04F0464961
:10FC00000968014019B1029803F062FB2E436D00B0
:10FC10000298001D80B20290641C082CE8D34FF4B7
:10FC2000BE7003F063FB48B14FF4BE7003F050FBAD
:10FC300046F0004600BF39480068814606F00F00D4
:10FC4000F8B1012500241AE005EA0600A8B100BFBA
:10FC5000334850F82400C0F30420074600BF304862
:10FC600050F82400C0F301408046204602F000F81E
:10FC7000824641463846D04700BF6D00641C082CC0
:10FC8000E2D306F00040002844D0002440E02046A3
:10FC900003F038FD82462AF0C0074FEA9A1001901F
:10FCA000012000FA07F5384603F040FD78B33846E6
:10FCB00002F026F8804601F0DBFF8346BBF1000F1F
:10FCC00024D000BF174850F82700C0F301408046F9
:10FCD00005EA090010B1B8F1020F05D005EA0900E4
:10FCE00098B9B8F1030F10D1019803280AD1B8F1DF
:10FCF000020F00D100E0022000903846009903F086
:10FD0000B7FA00BF38460199D84700BF00BF641C4E
:10FD1000042CBCD3BDE8FE8F0463004010050050E6
:10FD2000106500400007005000F01F0201219140C3
:10FD3000024A430942F823107047000080E200E0C5
:10FD400000F01F02012191404209920002F1E022DD
:10FD5000C2F800117047000000F01F02012191401D
:10FD6000024A430942F823107047000000E200E015
:10FD700010B5002807DA4A07140E054A00F00F03F1
:10FD80001B1FD45403E04A07130E024A135410BD3C
:10FD900018ED00E000E400E010B50020094908601B
:10FDA00000210948C0F84411C0F84811C0F84C11AE
:10FDB00000200549C1F8000102493C39086004F0FF
:10FDC000F9FA10BD401101400010014010B50021AA
:10FDD000014802F0A9FF10BD0030004010B504F04A
:10FDE0008BF910BD70B50B48006878B10948006800
:10FDF0008047044600BF254635B100BF00221146AA
:10FE0000284600F06FFB00BF00BF01E002F0A2FA3D
:10FE100070BD000020290020014802490860704799
:10FE20000090D0033829002010B502F0B5F928B1B0
:10FE30003148006820F080702F49086002F0E8F92E
:10FE400010B103202D49086002F0C4F930B1002040
:10FE50002B4908604FF08041C1F8100126487438E2
:10FE6000006840F47000244974390860BFF34F8F74
:10FE7000BFF36F8F2348006800F0004020B921488D
:10FE8000006800F0004098B301201F49086000BFDF
:10FE90001E4800680028FBD015201A49086000BFE2
:10FEA0001A4800680028FBD015211648001D016083
:10FEB00000BF164800680028FBD0002012490860E7
:10FEC00000BF124800680028FBD000BFBFF34F8F6F
:10FED0000948F038006800F4E0600D490843001D4F
:10FEE0000549F0390860BFF34F8F00BF00BFFEE740
:10FEF000FFE7FFF791FF10BDFCED00E0A00500401B
:10FF00000C0100400012001004E5014000E4014033
:10FF10000000FA051FB57648C07D002868D04FF470
:10FF20009271744803F039FAE8B14FF49271714854
:10FF300003F03AFA02208DF800006E4803F027FA29
:10FF400003906C4803F039FAC1B28DF80810684884
:10FF5000C068019000206649C8740846016842687C
:10FF60006846904716E04FF48871624803F015FA2E
:10FF700080B14FF488715F4803F016FA5D4803F0D2
:10FF80001CFAC4B25A48C07CA04202D1204603F0F9
:10FF9000AFFE00BF4FF4A271564803F0FEF970B1F6
:10FFA0004FF4A271534803F0FFF95148C07C30B1BF
:10FFB000504803F002FAC4B2204603F099FE4FF411
:10FFC00090714C4803F0E9F9002810D04FF490717B
:10FFD000484803F0E9F94648807C0028F5D04548B8
:10FFE00040F24C510958CCB2204604F049FC7EE066
:10FFF0004FF492713F4803F0ADF930B34FF4927172
:020000040002F8
:100000003C4803F0AEF94FF401713A4803F0B1F9FE
:100010003748407D18B90421364803F0B0F9022072
:100020008DF80000334803F08FF903903048C17C0D
:100030008DF80810C068019000202D49C87408464A
:1000400001684268684690471DE04FF48471294872
:1000500003F080F9B8B103F075FD2548C07C244950
:10006000097D88420FD12248407D18B904212148DA
:1000700003F085F94FF401711E4803F07AF91C4929
:10008000087D03F035FE4FF48E711A4803F062F9D3
:10009000A0B11748807C1649098A884202DD04F025
:1000A00047FB0BE04FF48E71124803F05AF91048E9
:1000B000807C18B10E49887C04F0E2FB4FF4A271F9
:1000C0000C4803F047F990B14FF4A271094803F0CE
:1000D00048F90748407D18B10021064803F04FF960
:1000E0000348C07C18B10249087D03F001FE1FBD22
:1000F000483200200020004030380A2801D2012078
:1001000070470020704700004279C2EBC202034BE7
:1001100003EB8202111D0122CA70704738330020A0
:1001200070B504466079C0EBC000144901EB800053
:10013000051D2979206803F0EBF82068202103F0E1
:1001400000F9082028744FF48E706882698A20684C
:1001500003F0E8F860790A4951F8200048B169696C
:10016000206803F0E2F8802068616969206803F084
:10017000DFF8204604F0B6FB70BD000038330020E5
:10018000B82800202DE9FC41044688461646002583
:10019000378800203080606B58B1616B08783B462F
:1001A0003246414603F0D2FD054615B12846BDE86A
:1001B000FC81206B48B13B4632464146206B04F03F
:1001C00050F905460DB12846F1E794F82E0050B1DC
:1001D00094F82E003B463246414602F02DF9054682
:1001E0000DB12846E3E794F82D0040B13A46314678
:1001F000404600F050FF05460DB12846D7E7A078ED
:1002000040B13A463146404600F04AFB05460DB142
:100210002846CCE7E07850B1E17848B23B46324618
:10022000414601F095FF05460DB12846BFE76068DD
:1002300058B1616891F900003B463246414604F0EE
:1002400035FB05460DB12846B1E7208900280CDDB5
:1002500043460622022104F10800CDE9006704F0BC
:100260004CFD05460DB12846A1E7208A00280CDD8B
:1002700043460722032104F11000CDE9006704F092
:100280003CFD05460DB1284691E7208B00280CDD8A
:1002900043461522142104F11800CDE9006704F04B
:1002A0002CFD05460DB1284681E7206A48B13B4642
:1002B00032464146206A01F0A2FD05460DB12846AE
:1002C00075E7606A48B13B4632464146606A02F0D3
:1002D00057FA05460DB1284669E794F82C00002826
:1002E00009DD3B4632464146204603F04AFD0546BD
:1002F0000DB128465BE7207848B13B46324641467F
:10030000204602F0F9FA05460DB128464FE7284687
:100310004DE70146C87800F0040008B9072070478F
:100320000020FCE710B501220221002001F0EAF8CC
:10033000044600BF1CB1072C01D0204610BD00BFF1
:1003400007220221012001F0DDF8044600BF1CB1A4
:10035000072C01D02046F1E700BF0A220021084601
:1003600001F0D0F8044600BF1CB1072C01D0204694
:10037000E4E700BF0020E1E730B5A7B0382119A8B5
:10038000FFF72BFB02208DF8640000208DF866003B
:1003900005208DF8670038210BA8FFF71EFB012010
:1003A000ADF83C0011491091242102A8FFF715FB7C
:1003B00001208DF8140040200690B4200790002002
:1003C0000B4B02AA0BA9009019A800F063FB04468E
:1003D00000BF254635B100BF00221146284600F077
:1003E00081F800BF00BF27B030BD00000228002008
:1003F00021340200014600BF064A10684FF4002273
:100400008243044B1B1D1A6000F400221B1D1A605E
:1004100000BF70470405005010B5002407E00749ED
:10042000096811F83400012102F0F6FA641C04484E
:1004300000788442F3D3002010BD0000D4280020AF
:10044000D82800202DE9F84306460C461746052F0C
:1004500002D20720BDE8F88302F0D2FB28B902F0EF
:10046000A7FB05460DB12846F4E715480660154878
:10047000047015480760002014490860144908609A
:1004800013E006EBC40813480068009098F80200D7
:100490008DF8010098F800000F4A694602F00EFB43
:1004A00005460DB12846D5E700BF201EA4F1010185
:1004B000CCB2E6D1094A0021094800F065F8C9E745
:1004C000D4280020D8280020DC280020E4280020A0
:1004D000E8280020E0540200D5220200E11F0200BB
:1004E000E028002000BFBFF34F8F0748006800F4EA
:1004F000E06006490843001D03490860BFF34F8FC1
:1005000000BF00BFFEE700000CED00E00000FA05B0
:1005100070B504460D46204601F015FE50B1A068A6
:10052000A18808402168085C2870A068401CA06071
:10053000002070BD0520FCE7034609B90E20704776
:1005400012B1501E104008B10920F8E71960501E82
:10055000988000209860D86000BFF0E770B504462E
:100560000D46204601F0EFFDA188884209D8E068D9
:10057000A188084021680D54E068401CE06000201C
:1005800070BD0420FCE7000070B503460C46194816
:10059000006808B9082070BD0AB90720FBE70BB94D
:1005A0000720F8E700211FE001EBC100114D2D6885
:1005B00015F82000B8B9012001EBC1050D4E3668D1
:1005C00006F8250001EBC1000A4D2D6805EB8000FF
:1005D000447001EBC100074D2D6805EB800082617E
:1005E00019600020D7E7491C034800788142DBDB13
:1005F0000420D0E7F0280020EC2800202DE9F04767
:1006000080460E4617461C46DDF82090204600F036
:10061000030109B9012100E0002111B90720BDE85B
:10062000F0870CB90720FAE703F02EFA2848C0F843
:100630000090284806702848046000250EE000203D
:1006400005EBC501244A126802F8210005EBC5013B
:10065000214A126802EB810108756D1CB542EEDB80
:1006600006EBC60004EB800403201C4908701C48FC
:100670000460183400250DE01949096801EBC50034
:100680000021017041708770446007EB470104EB63
:10069000C1046D1C032DEFDB4FF0FF3011490860E2
:1006A000002011490870114908701420FFF73CFB25
:1006B00003211420FFF75CFB1420FFF741FB4046A9
:1006C00003F0B8F903F0B0F9094908600020A6E783
:1006D00010290020EC280020F0280020F428002019
:1006E000F8280020FC2800200C2900200D290020DB
:1006F000002900202DE9F84304460D461646174808
:10070000006810B90820BDE8F883154800788442D5
:1007100001D2052D01D20720F5E704EBC4000F49F3
:10072000096811F82000012801D00820EBE704EB4C
:10073000C4000A49096801EB80004078012801D112
:10074000284600E00020074604F092FA80463B4627
:100750002A462146009603F0E3FDD4E7F028002066
:10076000EC28002070B504460D48006808B9082040
:1007700070BD0C480078844201D30720F8E704EBF1
:10078000C4000749096811F82000012801D0082099
:10079000EEE704F06DFA0546214603F0EDFDE7E7CC
:1007A000F0280020EC28002010B50446214602481D
:1007B000FFF7AEFE10BD0000D03100202DE9F04162
:1007C00088B004460D4617469846244807601DB970
:1007D000072008B0BDE8F081A88882B220482968C7
:1007E000FFF7AAFE06460EB13046F2E7A88982B2AC
:1007F0001C48A968FFF7A0FE06460EB13046E8E7A0
:10080000202219496846FFF7B6F8A06806902079BB
:1008100008B1012000E000208DF814008DF81C8044
:10082000607908B10E2000E000208DF81500E07816
:100830000290A078039020780190607800900B4996
:10084000684602F01DFB06460EB13046C1E702F0D5
:1008500029FC0121064802F065FBBAE78828002040
:10086000D0310020E0310020E4530200CD490200E5
:100870008E28002070B5044607480470012102F05C
:100880001DFC0546112D04D121460448FFF766FEE4
:100890000546284670BD00008D280020E03100206C
:1008A000F8B505460C4617462088001DB84201D908
:1008B0000C20F8BD684679DF06460EB13046F8E7F1
:1008C0000320218868542088401C2080192021881A
:1008D00068542088401C208020884119BDF8000001
:1008E00004F0F6F82188084420800020E1E70000A9
:1008F00010B50446206802F0AEFC206802F0D2FC7D
:100900000021606802F09AFC2548C07D18B3A069F8
:100910002449086000BF607D217D40EA0102224B2E
:10092000C3F86C2500BF1846D4E9001202F04DFD53
:10093000207D012832D1E06802F08DFCE06802F0F1
:10094000B1FC0021A06802F079FC1748D4E902212B
:1009500002F02DFD22E0A0691249086000BF607D11
:10096000217D40EA0102104BC3F86C2500BF1846F8
:10097000D4E9001202F006FD207D01280ED1E068C6
:1009800002F069FCE06802F08DFC0021A06802F032
:1009900055FC0548D4E9022102F0E6FC10BD000038
:1009A000483200202425004000200040F8B500BF58
:1009B0000020154B0522062100901046FFF71EFE71
:1009C000054600BF2E4636B100BF00221146304614
:1009D000FFF788FD00BF00BF00BF01F0E9FA002269
:1009E00041F2555109480068FFF784FE044600BFF4
:1009F000254635B100BF002211462846FFF772FD9B
:100A000000BF00BFF8BD0000EC2D0020182800201A
:100A10002DE9F04192B080460D461F2011901090B4
:100A2000B8F1000F13D04046FFF773FC04461CB129
:100A3000204612B0BDE8F08111AA08A94046FFF790
:100A4000A1FB04460CB12046F3E708AE02E0002605
:100A5000002011908DB1284603F06AFA04460CB1CB
:100A60002046E6E710AA69462846FFF78BFB0446B6
:100A70000CB12046DDE76F4602E000270020109011
:100A8000BDF84000C3B2BDF84400C1B23A4630469A
:100A900072DFCEE72DE9F04704460F4615461E46A5
:100AA000DDF8208004B115B90E20BDE8F0870020E4
:100AB00046490870464806604648C0F8008024222F
:100AC00029464548FEF757FF00F018F943484449C6
:100AD00008604448886038214348FEF77EFF20784C
:100AE00041490870A0788870E078C87060784870D4
:100AF0000846D4E90412C0E90412D4E90212C0E99C
:100B00000212D4E90612C0E90612606AD8B1374869
:100B10003549486236498160606A00883249496ACD
:100B20000880606A80883049496A8880002005E032
:100B3000616A8968095C2E4A1154401C2A49496A35
:100B400089888142F4D8A06A20B32A492A48816062
:100B50002549886227492448806A8160A06A808884
:100B60002149896A8880A06A00881F49896A0880AB
:100B7000002005E0A16A8968095C1E4A1154401CE6
:100B80001949896A89888142F4D894F82C00164959
:100B900081F82C00206A58B1184813490862206A6D
:100BA0004088096A4880206A00880F49096A0880DD
:100BB000606820B112480C49486060684860394656
:100BC0000948FFF725FF814648466EE76028002068
:100BD000582800205C280020E83000201C3100202C
:100BE0000C3100203C310020B03000205C3100206E
:100BF00068310020943100208831002064280020D2
:100C00006828002070B504462088102804D01128D8
:100C100009D0192863D11BE0207D012802D1A088CA
:100C2000304908805CE000202F490870A0882D49D9
:100C3000098888420BD1012000F092F8054635B1B1
:100C40002A48006818B1284628490968884747E0BB
:100C5000A079002842D126480078012806D0022831
:100C600011D003281CD0042836D129E0022000F03E
:100C700077F8054635B11D48006818B128461B496C
:100C80000968884729E0032000F06AF8054635B175
:100C90001648006818B128461449096888471CE0BE
:100CA000032014490870042000F05AF8054635B1B5
:100CB0000E48006818B128460C49096888470CE0BE
:100CC00000200C4908700C48006820B108460078E4
:100CD00009490968884700E000BF00BF00E000BF85
:100CE00000BF70BD6A280020612800205C28002019
:100CF00060280020542800205828002002480021A5
:100D000001608180817170474D28002010B5104826
:100D1000007801281AD10F480078B8B90E48007839
:100D200020B174DF04460CB1204610BD01200949F2
:100D300008700948007800F013F8044634B10748F9
:100D4000006818B120460549096888470020ECE78B
:100D5000E830002061280020602800205C28002066
:100D600030B587B00546954805700020009068466C
:100D700002F07CFD0446082C02D10020009003E024
:100D800014B1204607B030BD009820B101208C4935
:100D900008700020F6E7FFF7B1FF8A48407818B1E5
:100DA00086480078012806D08648807888B1834834
:100DB000007802280DD18448006838B101208349A9
:100DC0000870082080490968884702E000207F49B0
:100DD00008707A480078012809D17A48407818B11B
:100DE0007B4802F083FC10B90220744908707348F4
:100DF0000078022809D17348807818B1744802F04D
:100E000075FC10B903206D4908706E48007B30B93D
:100E10006A480078032802D10420684908706948AC
:100E2000007E40B965480078042804D10020634959
:100E300008706849087064480068A8B15F48007885
:100E4000032803D05D48007804280DD15D48007860
:100E500050B16148007838B9012060490870072016
:100E600059490968884702E000205C490870182148
:100E700001A8FEF7B2FD00208DF8040002908DF865
:100E80000C0004904D480078012806D0022813D0A9
:100E9000032825D004287CD14EE04D48401E029006
:100EA00001208DF804000020ADF81600ADF8140004
:100EB0000120484908706DE04548401E029001201D
:100EC0008DF804003F48008980B2ADF816003D4817
:100ED000808880B2ADF8140002203E49087059E0C5
:100EE0003848808A80B2ADF816003648008A80B251
:100EF000ADF814003A4803F08DFFC8B131480078CE
:100F0000B0B13548007898B902208DF80C0034480B
:100F1000049004203349C87000213248FFF778FD5F
:100F200004460CB120462DE705202A49087002E04E
:100F30000320284908702DE02248808B80B2ADF84C
:100F400014002048008C80B2ADF81600244803F04D
:100F500061FFD0B11B480078B8B11F480078A0B934
:100F600002208DF80C001E48049004201D49C87012
:100F700000211C48FFF74CFD044614B1204601E750
:100F800007E006201349087002E0042011490870A8
:100F900000E000BF00BF0948007828B101A873DF56
:100FA00004460CB12046EDE60748006820B1094828
:100FB00000780549096888470020E3E6602800209A
:100FC0004C280020E830002058280020632800200A
:100FD0004E2800205428002061280020622800208C
:100FE0000C310020B030002070B505461C22294687
:100FF0001248FEF7C0FC002011490870286850B163
:10100000104829680A680260496841607ADF04462E
:101010003CB1204670BD0B487BDF04460CB1204636
:10102000F8E74FF6FF70084908800020074908706C
:10103000074A00210748FFF7A7FAEBE7B431002081
:10104000842800206C2800207628002074280020A6
:10105000DD4A02008028002010B5044620881028B0
:1010600006D0112808D012280ED0502810D107E041
:10107000204602F075FA0CE0204602F093FA08E0F0
:10108000204602F0DFFA04E0204602F05BFA00E0BE
:1010900000BF00BF10BD2DE9FC4105460C461746B8
:1010A00020880930B84202D90C20BDE8FC8168468E
:1010B00071DF06460EB13046F7E7082021886854F4
:1010C0002088401C20801B20218868542088401CD8
:1010D000208020882844DDF801100160BDF805104B
:1010E00081802088801D20809DF8000018B9002094
:1010F0002188685402E00120218868542088401C1F
:1011000020800020D1E7000010B504462046FFF7FC
:10111000A3FF2146064800F049F8204602F09CF95A
:101120002046FFF76FFD204600F0E4F810BD0000F8
:101130003C29002070B586B004460E461A4B0FCBF2
:1011400001AD0FC504B116B90E2006B070BD4FF643
:10115000FF70A0823068A0610020A075214601A820
:1011600063DF05460DB12846EFE720788DF81600BD
:101170000120ADF81400A21C05A9A0DF05460DB1A1
:101180002846E2E73146204602F0F8FC05460DB15C
:101190002846DAE73146204603F0E6FA05460DB167
:1011A0002846D2E70020D0E7D453020070B50546A8
:1011B0000C4605B104B970BD2088102804D0112850
:1011C00007D050280FD109E02146284602F0E6F961
:1011D0000AE02146284602F005FA05E021462846A5
:1011E00002F05CFA00E000BF00BF00BFE3E737B5E4
:1011F00084B004460D4614B90E2007B030BDA08A55
:101200004FF6FF71884201D0A07D08B90820F4E7AD
:10121000BDF81800142801DD0720EEE7002000903B
:10122000019002900390A089ADF80000039506A8F4
:10123000029001208DF80200A08A6946A6DFDCE753
:101240007CB500BF002348221A49082002F03EFE68
:10125000054600BF2E4636B100BF0022114630467B
:10126000FFF740F900BF00BF00BF002000900190D1
:1012700001908DF80000684660DF044600BF2546F7
:1012800035B100BF002211462846FFF72BF900BFF9
:1012900000BF094802F010FE044600BF254635B1E4
:1012A00000BF002211462846FFF71CF900BF00BF0F
:1012B0007CBD0000842900200911020070B505469C
:1012C0000C4600260948056044B1204602F037FE6E
:1012D000064600BF0EB1304670BD00BF044800682E
:1012E00010B9FFF71FF806463046F5E744280020FE
:1012F0004828002070B505462888102802D01128FB
:101300002CD115E01748006860B900F027FE0446AC
:1013100000BF34B11448006818B12046124909686A
:10132000884700BF0F480068401C0E49086016E05F
:101330000C480068401E0B4908600846006860B908
:10134000FEF7F0FF044600BF34B10748006818B14B
:10135000204605490968884700BF00E000BF00BF7C
:1013600070BD0000482800204428002010B503204C
:1013700000F008FC044600BF1CB1062C01D020463A
:1013800010BD00BF0020FBE72DE9F04105460F46E8
:101390004FF00008002400E0641C042C04D22A480A
:1013A00050F82400A842F7D1042C41D227B3012FD2
:1013B00002D0022F3BD133E004EB4400234911F863
:1013C000008004EB44000844407868B1204800687D
:1013D00000EB800041001F4A1F480068FFF78AF9B0
:1013E00006460EB91B48057004EB44001749084433
:1013F00080781A4908551AE017480068FFF7B2F9D3
:101400001648005D04EB4401104A11448978884273
:1014100005D104EB44001146084490F8028006E030
:1014200004EB44000949084490F8018000BF00BF64
:10143000B8F1000F06D00A48006818B140460849C4
:1014400009688847BDE8F081A4530200A430002059
:10145000242800203C280020382800203D28002097
:101460003428002010B50246042A0ED2094B1B680E
:10147000D843094B13F822400123A34003400BB18A
:10148000012300E000230B7001E000200870002021
:1014900010BD000010050050A453020070B50546B1
:1014A000042D06D0072D17D00A2D26D102F0CEFC30
:1014B00024E013211248008876DF0446082C0AD065
:1014C00000BF264636B100BF002211463046FFF766
:1014D00009F800BF00BF11E0FFF718FC0446082C14
:1014E0000AD000BF264636B100BF00221146304662
:1014F000FEF7F8FF00BF00BF00E000BF00BF70BDF7
:101500000028002030B503460020042B23D2012AF6
:1015100007D1012903D103F10D04E4B200E0002456
:10152000224679B1012902D0022911D104E003EB4E
:1015300043040A4D2A550DE003EB4304074D2C44A8
:10154000627007E003EB4304044D2C44A27001E0F9
:10155000072000BF00E0072030BD0000A4300020BD
:1015600070B5044600250548007800F0010018B168
:10157000204600F06DF80546284670BD282800205A
:101580002DE9F04105460E469046002425480660A8
:10159000254805602548C0F8008005F00200F8B134
:1015A000002706E0012211463846FFF7ABFF04464C
:1015B0007F1C042F01D2002CF4D02CB97208042116
:1015C0001B48FEF73FFF044614B9FEF725FF04460B
:1015D0002CB9184A00211848FEF7D6FF044600BF70
:1015E00005F0010068B100BF4FF4F0101349086026
:1015F0000020091D086000BF4FF4F0100F491031A2
:1016000008602CB90E4A00210E48FEF7BDFF0446C3
:101610002CB90D4A01210D48FEF7B6FF04462046BD
:10162000BDE8F0812428002028280020342800204C
:10163000B4530200D51B02003828002008050050D2
:10164000A52402002C280020F503020030280020E9
:101650002DE9F041044600260025182C7ED2DFE853
:1016600004F00C18195EA4FDFBFAF9F8F7F6F5F48E
:10167000F3F2F1F0EFEEEDECEBEA00BF4FF4B01057
:10168000FE4908600020091D086000BFFC48047086
:101690006FE200BF00BF4FF4A010F84908600020BF
:1016A000091D086000BFF548001F006880F4F010B5
:1016B00000F4003088B100BF4FF40030091F08600B
:1016C0000020091D086000BF022C02D14FF4E16028
:1016D00001E04FF47A60054610E000BF4FF400309F
:1016E000E649091D08600020091F086000BF022CA0
:1016F00001D1C82001E04FF4C8700546E0480470ED
:101700006420B5FBF0F0DF49096800FB01F7002217
:101710003946DD480068FEF7EDFF064629E200BFC6
:101720004FF4A010D54908600020091D086000BFD3
:10173000D248001F006880F4F01000F4003090B12F
:1017400000BF4FF40030091F08600020091D086029
:1017500000BF032C03D14FF4487002E008E24FF4BD
:101760007A60054610E000BF4FF40030C349091D00
:1017700008600020091F086000BF032C01D1C820A9
:1017800001E04FF4C8700546BD4804706420B5FB05
:10179000F0F0BC49096800FB01F700223946BA485D
:1017A0000068FEF7A7FF0646E3E100BF4FF4A01074
:1017B000B24908600020091D086000BFAF48001F43
:1017C000006880F4F01000F4003088B100BF4FF4DE
:1017D0000030091F08600020091D086000BF042CAC
:1017E00002D14FF47A6001E04FF47A60054611E0CF
:1017F00000BF4FF40030A149091D08600020091FF7
:10180000086000BF042C02D14FF4C87001E04FF40F
:10181000C87005469A4804706420B5FBF0F09949F9
:10182000096800FB01F70022394697480068FEF777
:1018300061FF06469DE18FE18DE177E161E14BE1DA
:101840003DE101E1FFE0FDE0FBE0F9E0EDE0D3E0A8
:10185000BBE0A1E089E074E044E0FFE700BF4FF4A3
:10186000A010864908600020091D086000BF834859
:10187000001F006880F4F01000F4003080B100BF59
:101880004FF40030091F08600020091D086000BFE8
:10189000052C01D1C82001E04FF47A60054610E024
:1018A00000BF4FF400307549091D08600020091F72
:1018B000086000BF052C01D1C82001E04FF4C870BA
:1018C00005466F4804706420B5FBF0F06D49096867
:1018D00000FB01F7002239466B480068FEF70AFF5B
:1018E000064646E100BF4FF4A0106449086000209E
:1018F000091D086000BF6148001F006880F4F010F7
:1019000000F4003040B100BF4FF40030091F086000
:101910000020091D086009E000BF4FF4003057495E
:10192000091D08600020091F086000BF54480470AA
:1019300054480022016854480068FEF7DBFE064662
:1019400017E100BF4FF4A0104C4908600020091DAA
:10195000086000BF00BF4FF4003008600020091F7E
:10196000086000BF4648047003E100BF4349091FF7
:1019700008684FF480218143404A116000F48021BF
:10198000121D116000BF3F48002201683E480068F8
:10199000FEF7B0FE0646ECE000BF3849091F0868B4
:1019A0004FF480218143354A116000F48021121DDB
:1019B000116000BF3348006800EB8001002232480C
:1019C0000068FEF797FE0646D3E000BF2B49091FCB
:1019D00008684FF480218143284A116000F4802177
:1019E000121D116000BF27480022016826480068C8
:1019F000FEF780FE0646BCE000BF2049091F0868CC
:101A00004FF4802181431D4A116000F48021121D92
:101A1000116000BF1B48006800EB800100221A48DB
:101A20000068FEF767FE0646A3E000BF4FF4F01023
:101A30001249091D08600020091F086000BF98E0D6
:101A400000BF00BF00BF00BF10480068FEF78AFE5D
:101A50000646C4F111053DB336BB012D1BD9C82084
:101A600068436421B0FBF1F00649096800FB01F707
:101A700000223946054800680AE0000008050050C9
:101A800020280020242800202C2800203028002096
:101A9000FEF730FE064600BF4FF4002037490860CD
:101AA0000020091F086009E000BF4FF400203349FF
:101AB000091F08600020091D086000BF59E000BF31
:101AC0004FF4F0102D49091F08600020091D08601F
:101AD00000BF2B4804704CE000BF4FF4E0102749D2
:101AE000091F08600020091D086000BF00BF4FF4F7
:101AF000003008600020091F086000BF2048047003
:101B000037E000BF4FF4D0101C49091F08600020C7
:101B1000091D086000BF00BF4FF48020086000204E
:101B2000091F086000BF1648047022E000BF4FF490
:101B3000C0101249091F08600020091D086000BF7D
:101B400000BF4FF4C02008600020091F086000BFDC
:101B50000B4804700DE000BF00BF4FF4F0100749C0
:101B600008600020091F086000BF0548047000E0FD
:101B700000BF00BF3046BDE8F08100000C050050FA
:101B80002028002030B5024600201AE00F4C54F8FF
:101B90002040A40004F1A044D4F80017012484409C
:101BA00014400CB1032400E00024234621F440310A
:101BB00041EA0341064C054D55F8205044F82510E4
:101BC000401C0428E2D3002030BD0000A4530200D2
:101BD0000007005010B5044620780221FFF7D4FB1F
:101BE00010BD0000F8B50546154A40F6CD4103206A
:101BF000FFF7C6FC044600BF264636B100BF0022F0
:101C000011463046FEF76EFC00BF00BF694600205B
:101C1000FFF754FB044600BF264636B100BF002242
:101C200011463046FEF75EFC00BF00BF9DF8000085
:101C3000022801D1012000E000202870F8BD00003A
:101C40009D1402000148006870470000142800201D
:101C50004FF0FF32054941F82020082805DBFF231B
:101C6000A0F10801014A503253547047F43100206A
:101C70000146024850F8210070470000F43100206E
:101C80002DE9F04F03460C464FF0FF390AB1002012
:101C900000E0082084460AB1082000E00C208046BD
:101CA000614624E0154850F82100401CF0B91D465B
:101CB0000846274616464FFA80FBDFF840A00AF197
:101CC000300A0AF805B0DFF834A04AF820704EB99F
:101CD0004FFA85FBA0F1080ADFF820E00EF1500E64
:101CE0000EF80AB000BF4FFA81F902E0491C4145E5
:101CF000D8D300BF4846BDE8F08F0000F431002083
:101D00000146014840567047243200202DE9F04733
:101D100081461F480068401C002835D01C480068D8
:101D200000EBC0001B49096801EB8000456801F029
:101D30007BFE0746184804682146384602F062F9DF
:101D4000C61C1648007808B901F080FEAE4201D2E8
:101D5000284600E03046044424F07F4420461049E1
:101D6000086000BF01F060FE80463946404602F040
:101D700049F900F1030A3946204602F043F9824549
:101D800001D902F069FB01E001F07EFEBDE8F087B9
:101D9000FC280020F0280020002900201429002021
:101DA0004015014001460888062808DB0888B0F580
:101DB000486F06DD08884FF6FF72904201D0072079
:101DC00070474888062808DB4888B0F5486F06DD6C
:101DD00048884FF6FF72904201D00720F0E708884C
:101DE0004FF6FF72904208D04888904205D008888C
:101DF0004A88904201DD0720E2E70020E0E72DE974
:101E0000F04106460D46144698462088801D404500
:101E100002D90C20BDE8F0813046FFF7C3FF07462A
:101E20000FB13846F6E70520218868542088401C09
:101E300020801220218868542088401C208022881D
:101E40005119308802F044FE2188084420802288FD
:101E50005119708802F03CFE21880844208000203F
:101E6000D8E710B5044600BF002211462046FEF711
:101E700039FB00BF10BD000030B587B01C2168469B
:101E8000FDF7ABFD002000904FF4203001904FF49F
:101E90007020029003208DF80C000020ADF80E0099
:101EA0008DF810000A4805900A4806906846FFF72A
:101EB0009BF8044600BF254635B100BF00221146FD
:101EC0002846FEF70FFB00BF00BF07B030BD000083
:101ED00015350200631E020038B51B4800F090FA69
:101EE00020BB1A48007848B119484069E8B1002081
:101EF0000090174841696846884716E01548007801
:101F000010B91348456801E0114885680022294648
:101F100011480068FEF7EEFB044634B10C488069B6
:101F200018B10B4881692046884709E00848406994
:101F300030B101200090064841696846884700BFDB
:101F400000200249087038BD78280020842800202D
:101F5000B4310020742800208028002010B5012210
:101F600000210846FFF7CEFA044600BF1CB1072C3B
:101F700001D0204610BD00BF072202210120FFF73B
:101F8000C1FA044600BF1CB1072C01D02046F1E77E
:101F900000BF042202210020FFF7B4FA044600BF6C
:101FA0001CB1072C01D02046E4E700BF0020E1E788
:101FB00070B5094A01210948FEF7E6FA044600BF58
:101FC000254635B100BF002211462846FEF78AFAA1
:101FD00000BF00BF70BD00004D4002001828002067
:101FE0002DE9F0478146002532E01C48006800EBEF
:101FF000C5042178012000FA01F619480068304034
:1020000020B317480068B04315490860207800F0F5
:10201000C1FD07462178012088401249096808401F
:10202000217807FA01F188420FD16078012800D1A8
:1020300000E00020784080F00108606820B108F0DE
:10204000FF0120786268904700BF00BF681CC5B2DE
:10205000054800788542C8DBBDE8F087D428002019
:10206000E8280020E4280020D82800200146144851
:102070000078144A127890421DD011480078401C14
:102080000F4A107010460078022801D1002010700D
:102090000D480B4A127850F8220008600B4A086875
:1020A00012681044094A10601046006820F07F4012
:1020B0001060012070470020086000BFFAE70000B0
:1020C0000C2900200D2900200429002000290020CF
:1020D000F0B50346002426E0164E366806EBC60629
:1020E000154F3F6807EB860046689E4203D9466855
:1020F000F61A46601CE046689B1B4668344400267E
:10210000466006750B4E35680A4F066A3E600669E2
:1021100046B10E1926F07F4686600669C6601668CD
:102120000662156000BF03480068401C0028D3D138
:1021300000BFF0BDFC280020F028002001468A687E
:10214000C868801A704701468A68C868801A704754
:1021500030B504461088C01C984201D90C2030BD0F
:102160000220158848551088401C108001201588D1
:1021700048551088401C108015884C551088401C0C
:1021800010800020EBE770B504460D46E0B2FEF784
:1021900071FB204670BD00000D480078062814D160
:1021A0000B48001D007800F00F0070B90848083097
:1021B000007800F0F000302807D105480C30007896
:1021C00000F0F00008B9012070470020FCE7000093
:1021D000E00F00F00D480078062814D10B48001DD0
:1021E000007800F00F0070B908480830007800F05F
:1021F000F000302807D105480C30007800F0F000DE
:1022000008B9012070470020FCE70000E00F00F053
:102210000D480078062814D10B48001D007800F006
:102220000F0070B908480830007800F0F00030283E
:1022300007D105480C30007800F0F00008B9012003
:1022400070470020FCE70000E00F00F03EB500BF43
:102250009DF8000020F00F00401C00909DF8000049
:1022600020F0F0001030009000BF0B2216A168464D
:102270007CDF044600BF254635B100BF0022114671
:102280002846FEF72FF900BF00BF00200190029002
:102290001020ADF804003C20ADF806000020ADF899
:1022A00008004FF4C870ADF80A0001A87ADF0446B0
:1022B00000BF254635B100BF002211462846FEF773
:1022C00011F900BF00BF3EBD6E52463532205A495B
:1022D0004B544F002DE9F04105460F46012000FA0E
:1022E00005F418480068FEF73DFA06460EB1BDE851
:1022F000F081154800682040E0B9284600F04AFC0B
:1023000028B11248006820431049086004E00F48D3
:102310000068A0430D4908600B48006820430A4943
:10232000086000220A48016806480068FEF7E2F9E2
:10233000064604E004480068A0430349086000BF63
:10234000D5E70000E0280020E8280020E42800204D
:10235000DC280020F8B52548007800B9F8BD2448ED
:10236000006808B9012000E0002005462148006807
:1023700008B9012000E00020064600BF9DB968466C
:1023800051DF0446052C01D101250BE034B100BF1B
:10239000002211462046FEF7A5F803E014490098F4
:1023A0000968884700BFCEB9134800880090694685
:1023B0001248006861DF0446052C01D101260CE0BB
:1023C00034B100BF002211462046FEF78BF804E02E
:1023D0000A48006807490968884700BF0DB106B17F
:1023E00000E0CBE700BF00BFB8E7000024290020D1
:1023F00034290020302900202C2900202829002001
:1024000001464888064A1288904206DB4888044AFA
:102410005288904201DC012070470020FCE7000058
:102420006C28002008B569461E2001F0D9FA9DF8F5
:10243000000000F0010008BD30B504461088C01C43
:10244000984201D90C2030BD0220158848551088CB
:10245000401C10801C20158848551088401C108096
:10246000012C06D0022C08D0032C0AD0042C10D149
:102470000BE00020158848550DE0012015884855CF
:1024800009E002201588485505E0032015884855C5
:1024900001E00720D7E700BF1088401C1080002013
:1024A000D1E7000010B504460448007800F00100B0
:1024B00018B103480078FFF7CBF810BD282800209A
:1024C000202800202DE9F0472C48D0F800902C4817
:1024D00090F8008041E02B48006800EBC8042578A4
:1024E00037E005EB4501606800EBC107681CC5B229
:1024F000A078A84200D100253878022802D003280D
:1025000024D10EE0786800EBC0001F49096801EB98
:102510008006307D20B1786801F096FE002030758D
:1025200015E00DE01549096801EBC101164A126872
:1025300002EB810000210175104A016A116000BFA1
:102540000E480068401C0028ECD100E000BF00BF2E
:1025500000BF6078A842C4D100BFB8F10000A8F164
:10256000010101F0FF08B6D104480068484502D0D7
:102570000120BDE8F0870020FBE70000FC280020D8
:10258000F4280020F8280020F02800202DE9F0474A
:1025900006464448D0F800A0434890F8008070E018
:1025A0004248006800EBC80563E0701C48B137463C
:1025B0003E4607EBC6003E49096801EB8004266AE7
:1025C00029E02A7802EB4202696801EBC20029780F
:1025D000491C29702978AA78914201D100212970DB
:1025E000476807EBC701324A126802EB81040178A1
:1025F000012901D1217D01B13BE08168A160C16861
:10260000E160016921614169E1612A49097809B103
:102610000021A16000BF2849A0680968401A20F085
:102620007F402649884208D22349A068096801F002
:10263000E9FCE1680844606010E01F48A168006898
:1026400001F0E0FC8146E068484504D9E068A0EB71
:102650000900606001E00020606000BF0020A06011
:10266000E06001202075801E2062384601F076FD72
:1026700000BF701C002898D128786978884294D1CE
:1026800000BFB8F10000A8F1010101F0FF0887D1F7
:1026900004480068504502D00120BDE8F0870020C2
:1026A000FBE70000FC280020F4280020F828002088
:1026B000F02800201529002000290020FFFF7F00BE
:1026C00008B502F0D7F9FEF771F96846FFF78AFA04
:1026D000FEF7B6FDFFF7BAFD01F09EFBFDF74CFEDD
:1026E000FFF7CAFB0320FEF73BFB044600BF25466D
:1026F00035B100BF002211462846FDF7F3FE00BFAA
:1027000000BF01F049FF044600BF254635B100BFB8
:10271000002211462846FDF7E5FE00BF00BF00BFBE
:1027200000F06AF800BF002502F094FA01F0B4F856
:1027300020B90C480068401C0A490860FFF782FA7B
:102740000949096888420BD00648016807A0FCF7D0
:102750006DFF002003490860FFF774FA0249086022
:10276000E1E700000C2800200828002053616D706C
:102770006C696E672040202564487A0A00000000DA
:102780002DE9F04105460E4614469846A888871C58
:102790002088801C3844404502D90C20BDE8F081D7
:1027A000FE2F01D90C20F9E7781C2188705420886D
:1027B000401C2080FF20218870542088401C2080ED
:1027C00022889119288802F083F921880844208002
:1027D000A88800280DDDA86808B90720DEE7AA88C8
:1027E00023889819A968FDF781F82088A9880844EA
:1027F00020800020D2E7000038B51FA0FCF716FFAC
:102800006B2120A0FCF712FF24A0FCF70FFF694604
:102810000F2001F0E5F89DF80000692801D125A0FE
:1028200000E027A0014628A0FCF700FF002427A015
:10283000FCF7FCFE44F0020444F0080444F05004A9
:102840002146102002F0F0FA6946132001F0C8F882
:1028500000BF44F080042146132002F0E5FA21A0D5
:10286000FCF7E4FE002444F00C0444F0500421463C
:10287000112002F0D9FA38BD6D707520696E697447
:1028800028290A00536C617665204164647265737F
:1028900073203A203078252E34780A0054657374FA
:1028A000696E6720436F6E6E656374696F6E2E2E5E
:1028B0002E2000005375636365737366756C0000AA
:1028C0004661696C6564000025730A0053657420D5
:1028D000416363656C65726F6D657465722E2E0A57
:1028E00000000000536574204779726F6D65746550
:1028F000722E2E0A000000002DE9F84F05460F4603
:10290000144698462878012804D1687810B9072021
:10291000BDE8F88F2088801C404508D82878012819
:1029200007D12088801C69780844404501D90C20D3
:10293000EEE72088A8EB0000801E86B20096218872
:10294000891CC81969467DDF8146B9F1000F01D0A5
:102950004846DDE72878022806D1BDF80000B042DD
:1029600002DC4FF0090A0BE04FF0080A2878012832
:1029700005D16878B04202DC6878009000E00096EB
:10298000BDF80000FE2801D90C20C1E7BDF8000009
:10299000401C218878542088401C2080208807F81B
:1029A00000A02088401C20802088BDF8001008442A
:1029B00020800020ACE7000070B50B4601461A46A7
:1029C000002907DA5407260E104C01F00F052D1FC1
:1029D000665503E05407250E0D4C655400BF00BF3B
:1029E00000F01F02012191400A4A440942F82410D4
:1029F00000BF00BF00F01F02012191404209920078
:102A000002F1E022C2F8001100BF70BD18ED00E035
:102A100000E400E080E200E02DE9F04705460E46C4
:102A2000284600F083FE10B32846FFF769F9A0F1AD
:102A30000809484600F066FE0746BC11032C0BD17E
:102A400000BF1C4800680121A940084008B10320CC
:102A500000E00220804605E0012C01D1022000E0C8
:102A6000032080464146284600F002FC1FE028462D
:102A700000F068FED8B12846FFF742F90446A000EE
:102A800000F5807087B220460B4951F8201041F0C4
:102A90000102094941F8202000BF384600F018FC27
:102AA00026B1012101FA04F000F02CFC00BFBDE8C2
:102AB000F087000010050050106500402DE9FC472C
:102AC00004460E4617464FF00008204600F020FE50
:102AD00010B14FF0080851E0F27839462046FFF770
:102AE000CFF80546681C002845D0B07860B100BF1B
:102AF000A10001F1A041D1F8001721F00200214905
:102B000041F8240000BF0CE096F8019000200090EE
:102B10004B46024601460190204600F06BFB00BF89
:102B200000BFF078D0B13078174951F82510174A16
:102B30001140154A42F82510114651F825104FF45E
:102B4000F85202EA04224FF4403303EA00431A43E6
:102B500011430D4A42F8251000BF0EE0A5F1080010
:102B60000B49085C317840EA811042B2A5F10800B7
:102B700007490A5401E04FF0040800BF4046BDE891
:102B8000FC8700000007005010650040FFE0FCFFDC
:102B900044320020014600BF04480068C84000F0ED
:102BA000010008B1012070470020FCE7100500502B
:102BB00010B51248007808B1082010BD002404E0C8
:102BC000204600F0CFFD601CC4B2202CF8DB0024AE
:102BD00004E02046FFF73CF8601CC4B20C2CF8DB84
:102BE00001210620FFF7E8FE4FF0004000F08AFBCD
:102BF0000120024908700020DFE70000F0310020CA
:102C00000348007808B1012070470020FCE700006D
:102C1000F031002010B504464FF48271206800F0B6
:102C200081FB4FF48471206800F07CFB4FF48E71BF
:102C3000206800F077FB4FF49271206800F072FB7F
:102C400060790E4951F8200020B14FF400712068DE
:102C500000F06EFB20680521C0F8001500BF0220BF
:102C60006179C1EBC101064A02F8210000206179B7
:102C7000C1EBC10102EB8101487010BDB8280020F2
:102C80003833002070B504460D4616466079C0EB17
:102C9000C000204911F8200008B1082070BD1DB9FE
:102CA00060791D4901EB001560791C4941F82060ED
:102CB00060791B4941F820402946204601F022FC5A
:102CC00040F20C6117482A6840F822106A6840F800
:102CD00022102068A968C0F8241500BF2068D5E933
:102CE0000012C0F80815C0F80C2500BF60790B4928
:102CF00051F8200020B1297B94F90400FFF75CFE15
:102D000001206179C1EBC101024A02F821000020D3
:102D1000C4E700003833002024540200B828002003
:102D2000BC280020000700502DE9FF4706460D464D
:102D3000C5EBC5003B4901EB8000041D4FF49271C7
:102D4000304600F0E8FA8046618A304600F0E3FA47
:102D500081464FF49271304600F0E4FA4FF48E71E0
:102D6000304600F0DFFA4FF48471304600F0DAFAB2
:102D70004FF48271304600F0D5FAB8F1000F02D15D
:102D8000B9F1000F4BD0B8F1000F01D0052705E0D5
:102D9000207808B1022000E003200746224951F8BC
:102DA0002500394601F0F2F8E078E8B10020A07083
:102DB0001E4B0FCB8DE80F00A0680190E0890290B8
:102DC00000BFD6F8C404C6F8C40400BF00F0020077
:102DD00008B1022000E004208DF80C00144850F8DF
:102DE0002510684688471AE0E089A189884216DBE9
:102DF00000200090019002900390A070207808B10C
:102E0000012000E000208DF80000A0680190E0891A
:102E10000290074850F825106846884700BFBDE873
:102E2000FF87000038330020BC280020D054020067
:102E3000B82800202DE9FC4104460D4616461F46E1
:102E4000DDF8208000203B4632462946CDE900804F
:102E5000204601F0BBFBBDE8FC812DE9FC410446A6
:102E60000D4616461F46DDF8208001203B463246BF
:102E70002946CDE90080204601F0A8FBBDE8FC8191
:102E800070B504460D462048807D08B1082070BD0D
:102E900004B91E4C607F1C49C8752046FDF728FD0B
:102EA000194845601849206908600846406890B193
:102EB000267F0846C07D20B115481649086000BF2E
:102EC00003E01549154800F057FA31460220FFF794
:102ED00073FD00BF00BF00BF0B48C07D28B100BF1D
:102EE00008200F49086000BF05E000BF04200C491E
:102EF000086000BF00BF00BF0120034988750020A3
:102F0000487500BFC3E700004832002004540200A7
:102F10001003020004230040800002000020004053
:102F2000002500402DE9F04104460D465B48C07C79
:102F300010B11120BDE8F0815848C574C46000206C
:102F4000564908750846C07D002850D0200C000462
:102F5000B0F1005F01D01020ECE74FF488715048C9
:102F600000F022FA4FF4A2714D4800F01DFA4C48CF
:102F7000C0F834454FF4A7610D5000BF002100F0A8
:102F800021FA46484068002830D100BF4FF48871CC
:102F9000434800F002FA80464FF4A271404800F026
:102FA000FCF907464FF492713D4800F0F6F90646E9
:102FB000B8F1000F02D10FB9002EE7D04FF488719D
:102FC000374800F0F1F94FF4A271354800F0ECF900
:102FD0004FF49271324800F0E7F900202F49C8748D
:102FE0000EB10320A6E70FB10F20A3E753E02B4853
:102FF000407D08B900F092FE28484068002845D17D
:1030000000BF00BF4FF49271254800F0A3F90746B6
:103010004FF48471224800F09DF980464FF4A2716C
:103020001F4800F097F90646B8F1000F02D10EB91B
:10303000002FE7D007B906B107E000F083FD17487D
:10304000C07C1649097D8842DBDC00BF4FF4A271C9
:10305000134800F086F94FF49271114800F081F99D
:1030600000200E49C8740FB1032063E70EB10F2092
:1030700060E70A48407D20B10021094800F07FF94F
:1030800003E00421064800F07AF904E04FF40171EE
:10309000034800F071F900204CE70000483200209E
:1030A0000020004010B50448407D20B900F036FEF5
:1030B00001200149487510BD483200202DE9F0413A
:1030C00004460D464FF000084848807C10B111209E
:1030D000BDE8F0814548857484600020434908823A
:1030E0000846C07D00283FD0200C0004B0F1005FEE
:1030F00001D01020ECE74FF490713D4800F054F9F6
:103100004FF4AC713A4800F04FF93948C0F84445E3
:103110004FF4A9610D5000BF082100F053F9334866
:10312000406800285FD100BF4FF49071304800F034
:1031300034F907464FF4AC712D4800F02EF90646DD
:103140000FB9002EF0D04FF49071294800F02CF9FF
:103150004FF4AC71264800F027F90EB14FF00F087C
:103160000020224988743EE04FF48E71204800F020
:10317000F8F808211E4800F002F901F0D9FA1B48BE
:10318000406880BB12E000BF4FF48E71184800F019
:10319000E1F820B91548008AB0F5807FF4D11348D2
:1031A000008AB0F5807F01D001F0C2FA0F48807C20
:1031B0000E49098A8842E6DC0C48008AB0F5807F17
:1031C00002D14FF00F080BE000BF4FF48E7108489A
:1031D00000F0C0F80028F8D00C21054800F0CFF826
:1031E000002002498874404672E7000048320020FF
:1031F00000200040F0B5DDE9054541EA420646EA17
:10320000830646EA042646EA0547024E46F8207041
:10321000F0BD000000070050F0B5DDE9054541EACA
:10322000420646EA830646EA042646EA0547024E77
:1032300046F82070F0BD0000000700507CB5054640
:103240000C46002000902346024601460190284685
:10325000FFF7E2FF7CBD1CB504460020009003464A
:103260000122114601902046FFF7D6FF1CBD000049
:10327000074A52F8202022F44033054A42F8203011
:1032800052F8202042EA0143014A42F820307047B8
:103290000007005001218140014A11607047000081
:1032A0000C05005001218140014A11607047000067
:1032B0000805005001218140014A1160704700005B
:1032C000080500500146014808447047006000406E
:1032D00038B504462046FFF7F5FF0021016020467F
:1032E000FFF7F0FF0068009000BF38BD10B504463E
:1032F0002046FFF7E7FF0068012800D110BD00203D
:10330000FCE70000014908607047000004630040CA
:10331000C0F8881570470246505808B10120704720
:103320000020FCE7002242507047C0F808137047A5
:10333000C0F804137047D0F800228A43C0F8002276
:1033400070470122425070470146D1F88004C1F80D
:10335000800470470246505808B101207047002091
:10336000FCE7002242507047C0F80815C0F810254D
:103370007047C0F808137047C0F804137047012263
:1033800042507047C0F80C15C0F81425704701462C
:10339000D1F88004C1F8800470470246505808B143
:1033A000012070470020FCE7002242507047C0F81F
:1033B00008154FF4A2631A507047014640F23C5082
:1033C0004058704701224250704740F20C53195048
:1033D00040F214531A5070472DE9F04107460D464C
:1033E00016460CA0FCF722F901200C4908700024B5
:1033F00006E000BF285DFDF73DFA0028FAD1641C05
:10340000B442F6D300BF0A20FDF734FA0028FAD1FF
:10341000BDE8F0817278203A2000000006280020E4
:1034200070B505468DB1032D12D10220FEF798F834
:10343000044600BF264636B100BF00221146304682
:10344000FDF750F800BF00BF03E000F0FFFC00E014
:1034500000BF00BF70BD000070B505462888102869
:1034600006D0112817D0132829D052284DD139E081
:103470000720FEF775F8044600BF264636B100BFA8
:10348000002211463046FDF72DF800BF00BFA88886
:103490001F4908803AE00020FEF762F8044600BFAA
:1034A000264636B100BF002211463046FDF71AF815
:1034B00000BF00BF4FF6FF701549088026E00023CB
:1034C0001A468521124800887FDF044600BF264641
:1034D00036B100BF002211463046FDF703F800BFA9
:1034E00000BF13E000231A46194609480088A9DFE7
:1034F000044600BF264636B100BF002211463046C2
:10350000FCF7F0FF00BF00BF00E000BF00BF70BDD0
:103510000028002070B50546287878B93B21084876
:10352000008876DF044600BF264636B100BF002281
:1035300011463046FCF7D6FF00BF00BF70BD00004B
:103540000028002010B504460449D4F806200A607B
:10355000D4F80A004860FEF7BFFC10BD78280020B0
:1035600010B50446A088094908800949D4F81620F6
:103570000A60D4F81A00486000200649087006481E
:10358000C08908B9FEF7A8FC10BD0000762800200D
:103590007828002074280020B43100208A88828294
:1035A0007047000070B505464FF6FF700949088066
:1035B00000200949087009480068FDF7D3F804465F
:1035C00034B10748806918B10548816920468847A9
:1035D00070BD00007628002074280020802800207C
:1035E000B43100204FF6FF728282704770B50446F6
:1035F0006079C0EBC000114901EB8000051D4FF45C
:1036000082706882698A2068FFF78CFE60790C49B5
:1036100051F8200048B169692068FFF786FE022052
:10362000686169692068FFF783FE20682021FFF741
:1036300088FE20681421FFF784FE70BD3833002017
:10364000B828002070B50546AC1D20881149C989ED
:1036500088421DD1208B02281AD100BF00BFA17E55
:10366000E27E41EA0221084600F0010111B1FEF7B5
:1036700033FC0DE008480068FDF774F8064636B1E3
:103680000448806918B1034881693046884700BF03
:1036900070BD0000B43100208028002070B50446C1
:1036A0000E46B51D2988208A814212D1288B022816
:1036B0000FD100BF00BFA97EEA7E41EA0221084681
:1036C00000F0010111B10120A0750EE00020A075ED
:1036D0000BE02888A188884207D1A06928B12A8BED
:1036E00005F11A012046A369984770BD02460021E2
:1036F00004E0505C08B101207047491C0629F8D34A
:103700000020F9E701460148405C70474432002040
:10371000014605484056012202EBE07008B1012045
:1037200070470020FCE700002432002001460448D6
:103730004056082801DB012070470020FCE700000C
:1037400024320020014606484056002805DB044884
:103750004056082801DA012070470020FCE70000ED
:1037600024320020FF2201490A54704724320020ED
:1037700010B508A0FBF75AFF0CA0FBF757FF12A0EB
:10378000FBF754FF12A0FBF751FF17A0FBF74EFF0A
:1037900010BD00002020202020434F4D4D414E44BD
:1037A000204C49535420200A0000000031203A20C8
:1037B00020496E697469616C697365204163636552
:1037C0006C204779726F0A0032203A20200A0000EC
:1037D00033203A20205072696E742044617465541D
:1037E000696D650A0A0000003F203A202050726986
:1037F0006E7420436F6D6D616E64204C6973740A42
:10380000000000003EB51048006800F03F000E497F
:103810000968C1F385110C4A1268C2F30432CDE97C
:103820000021029008480068C0F34443064800683D
:10383000C0F38352044800684FF4FA6404EB9061CB
:1038400002A0FBF7F3FE3EBD1428002025642D25C1
:103850003032642D2530326420253032643A2530F0
:1038600032643A253032640A00000000014600BF8D
:103870000748007800F0040008B90820704700BF2E
:1038800009B90E20FAE70348407808600020F5E700
:10389000B42800206032002010B52DED048B86B0D6
:1038A0000024FEF7BFFD30B901204849086006B08A
:1038B000BDEC048B10BD05A9282000F091F808B1DB
:1038C0000220F4E79DF8144005A9292000F088F8AB
:1038D00008B10220EBE79DF8140044EA002004B28E
:1038E00000EE104AB8EEC00A10EE100A01F09CFC7F
:1038F00041EC190B9FED360B53EC102B01F0E8FA5D
:1039000041EC180B01F0B2FA3349086005A92A20EE
:1039100000F066F808B10220C9E79DF8144005A937
:103920002B2000F05DF808B10220C0E79DF81400DC
:1039300044EA002004B200EE104AB8EEC00A10EECD
:10394000100A01F071FC41EC190B9FED210B53ECB7
:10395000102B01F0BDFA41EC180B01F087FA1E495B
:10396000486005A92C2000F03BF808B102209EE732
:103970009DF8144005A92D2000F032F808B102206E
:1039800095E79DF8140044EA002004B200EE104AC6
:10399000B8EEC00A10EE100A01F046FC41EC190B1B
:1039A0009FED0B0B53EC102B01F092FA41EC180B2E
:1039B00001F05CFA08498860142269460748FDF75F
:1039C00016FC00200149086000BF70E710280020A5
:1039D000CE35CCD0581F8A406C2900203C290020CD
:1039E0002DE9FC4105460E46002700BFE8B20190D4
:1039F0000120034601AA6B2100900A48FFF72DFA27
:103A0000044604B10AE00020012332466B210090F5
:103A10000448FFF70FFA04467F1C00BF00BF204692
:103A2000BDE8FC8180530200014800687047000037
:103A30000415014010B50446034804600321112019
:103A4000FCF796F910BD00000815014010B54FF4C1
:103A500080300A4908600A49C1F804031120FCF7C4
:103A600063F91120FCF76CF90120054908602F204B
:103A7000FBF780FD01200349087010BD441301408D
:103A8000001001401429002010B5112001218140AF
:103A90000E4A430942F8231000BF4FF480300C490E
:103AA00008600C49C1F80803012048602F20FBF78B
:103AB00061FD0120074988600020074908602F2028
:103AC000FBF758FD00200549087010BD80E100E0BB
:103AD0004813014000100140002900201429002053
:103AE00070B504466079C0EBC000144901EB80005A
:103AF000051D29792068FFF70BFC20682021FFF7BE
:103B000020FC002028744FF484706882698A206841
:103B1000FFF708FC60790A4951F8200048B169694B
:103B20002068FFF702FC0420686169692068FFF7DC
:103B3000FFFB204600F004F970BD00003833002080
:103B4000B828002010B54FF484710948FFF709FC2C
:103B500000BF08480068C0B20749C968064A127D1C
:103B600088540548007D401C0349087510BD0000BD
:103B700000200040182500404832002030B58FB0AA
:103B800004460D460020079000BF9DF81C0020F061
:103B90000F00401C8DF81C009DF81C0020F0F00068
:103BA00010308DF81C0000BF00BF9DF81D0020F0F4
:103BB0000F00401C8DF81D009DF81D0020F0F00046
:103BC00010308DF81D0000BF9DF81E0020F006008B
:103BD000801C8DF81E001C2108A8FBF7FEFE9DF836
:103BE000200020F0100010308DF8200000200990F7
:103BF0000B900C9007A80D9000200E9020788DF867
:103C000006000320ADF804000020009000BF9DF8DE
:103C1000000020F00F00401C8DF800009DF800000F
:103C200020F0F00010308DF8000000BF00BF9DF8BC
:103C3000010020F00F00401C8DF801009DF80100EC
:103C400020F0F00010308DF8010000BF9DF8020058
:103C500020F00600801C8DF802009DF8020020F084
:103C600008008DF802009DF8020020F010008DF889
:103C700002009DF8020020F00100401C8DF80200B7
:103C8000142102A8FBF7A9FE01A80290CDF80CD0E0
:103C90000120ADF810000020ADF812001420ADF89E
:103CA0001400608804F10C0302AA08A9A2DF0FB077
:103CB00030BD000070B505466879C0EBC0000B4907
:103CC00001EB8000041D2868D0F81815C9B2A0685F
:103CD000E2898154E089401CE081E089A189884221
:103CE00002DA284600F02CF870BD000038330020BE
:103CF0001FB5044601208DF800008DF808400648E5
:103D0000C068019000200449C874084601684268F0
:103D1000684690471FBD00004832002010B54FF4A0
:103D200092710648FFF71DFB4FF484710348FFF7BB
:103D300018FB00210148FFF722FB10BD00200040C6
:103D400010B50446204600F0E3FD10BD30B5044632
:103D50001088C01C984201D90C2030BD0220158863
:103D600048551088401C108011201588485510882F
:103D7000401C108010880C541088401C10800020BB
:103D8000EBE72DE9F04707460E4614469A46B86A17
:103D900010B90720BDE8F0874FF0000836E008EBC7
:103DA0004801B86A00EB8105A88800F10209B9F161
:103DB000FE0F01D90C20EDE709F1010021887054B4
:103DC0002088401C20801620218870542088401CA8
:103DD000208022889119288800F07AFE21880844E2
:103DE0002080A88800280DDDA86808B90720D1E741
:103DF000AA8823889819A968FBF778FD2088A988E4
:103E00000844208008F1010000F0FF0897F82C001A
:103E10004045C4DC0020BDE738B5002000900948CB
:103E2000009069460848FDF785F9044600BF25461D
:103E300035B100BF002211462846FCF753FB00BFF6
:103E400000BF38BDD93302003C29002070B50020E6
:103E5000FDF786FB044600BF254635B100BF0022B2
:103E600011462846FCF73EFB00BF00BFFDF77EFA77
:103E7000044600BF254635B100BF00221146284642
:103E8000FCF730FB00BF00BF3CDF044600BF254607
:103E900035B100BF002211462846FCF723FB00BFC6
:103EA00000BF70BD70B506460C4615462946204633
:103EB000AFF3008070BD0000014609B90E207047C5
:103EC000014801600020FAE7302900202DE9F04187
:103ED00080460C4616461F4614B90720BDE8F081FF
:103EE000204600F0030109B9012100E0002109B9D1
:103EF0000720F3E70948046009480680094807607D
:103F00000949404610DF05460DB12846E6E7012085
:103F10000649087016202EDFE0E70000282900205F
:103F20002C29002020290020A53E02002429002061
:103F30000146C87808B1072070470020FCE77CB52F
:103F4000044601A90020FDF78DFA054600BF0DB11A
:103F500028467CBD00BF69460120FDF783FA05466F
:103F600000BF0DB12846F4E700BF9DF8000010B176
:103F70000220207007E09DF8040010B10B20207093
:103F800001E0002020700020E3E700002DE9F04769
:103F900006460F464FF000097079C0EBC000164985
:103FA00001EB800090F80180144850F8285000245C
:103FB0001AE015F83400B84215D105EBC40040787A
:103FC0007179C1EBC1010C4A02EB8101487005EB2C
:103FD000C400406820B105EBC40041683046884702
:103FE0004FF0010905E0641C054850F82800A04284
:103FF000DFD800BFBDE8F08738330020C02800209C
:10400000BC5402000246501A20F07F407047000066
:1040100070B504460C48006888B10B4AD4E9060123
:1040200012689047054600BF2E4636B100BF0022F9
:1040300011463046FCF756FA00BF00BF02E0D4E953
:104040000610884770BD000010290020014629484D
:104050000068401C274A126860F305022548026088
:1040600002F03F003C22B0FBF2F302FB13000028F9
:104070003ED12048006820F03F001E4A10601046E4
:1040800000688009401C126860F38B1219480260B6
:104090000068C0F385103C2290FBF2F302FB130092
:1040A00030BB1448006820F47C60124A106010464F
:1040B0000068000B401C126860F310320D4802606B
:1040C0000068C0F30430182290FBF2F302FB1300E7
:1040D00070B90848006820F4F830064A10601046AD
:1040E0000068400C401C126860F3554201480260B1
:1040F00070470000142800202DE9FC414FF0FF30EC
:10410000019010480468104807686846FDF7AEFF44
:104110000546FEF7D7F906462DB101AA21460098BB
:10412000FDF7D6FF01260198FEF730FA00B101260F
:1041300016B13846FDF7EAFD002004490870BDE8D5
:10414000FC81000000290020FC2800201529002007
:1041500010B51420FBF700FE10BD0000F0B50246BC
:1041600002EBC200364B1B6803EB80013548006848
:10417000401C10B93348026060E0324B48681B684D
:1041800003EBC3032E4C246804EB83035B68984263
:1041900019D82C48006800EBC000294B1B6803EBC2
:1041A000800040684B68C01A264B1B6803EBC303B2
:1041B000234C246804EB830358602248006808629B
:1041C000204802603AE04B681E4D2C6828680FE0DA
:1041D00000EBC0051A4E366806EB85056D685B1B63
:1041E000044600EBC005164E366806EB8505286AC6
:1041F000451C45B100EBC005114E366806EB850540
:104200006D689D42E4D3451C75B100EBC0050C4EB2
:10421000366806EB85056D68ED1A00EBC006084FA1
:104220003F6807EB860675604B60086204EBC405C7
:10423000034E366806EB85052A6200BFF0BD00001C
:10424000F0280020FC28002070B502462F4C216881
:1042500008460AE0904200D10AE0014600EBC004A3
:104260002B4D2D6805EB8404206A441C002CF1D1F1
:1042700000BF441C04B970BD814217D1234C24688F
:1042800004EBC404224D2D6805EB8404246A1F4D01
:104290002C602C462468641C44B901241D4DAC607C
:1042A00000241D4D2C6001241C4D2C7000EBC0041B
:1042B000174D2D6805EB8404636800EBC004144DB2
:1042C0002D6805EB8404246A01EBC105104E3668A5
:1042D00006EB85052C6201EBC1040D4D2D6805EB45
:1042E0008404206A441C74B100EBC004084D2D689E
:1042F00005EB840464681C4400EBC005044E36687A
:1043000006EB85056C6000BFB5E70000FC280020C7
:10431000F02800200010014000290020152900206D
:104320002DE9F84305460E4617469846DDF82090DD
:104330001049096801EBC500694600F0C5FC044658
:1043400014B90420BDE8F883012020706660FFF7EF
:104350006BFBA060E760C4F81080C4F814900549B6
:10436000096801EBC500009900F0C5FCFFF7F0FEFD
:104370000020E7E7F8280020F8B504460E460C496F
:10438000096801EBC400694600F09EFC05460DB9C2
:104390000420F8BD022028706E600549096801EB11
:1043A000C400009900F0A7FCFFF7D2FE0020F0E760
:1043B000F82800202DE9F04121480068401C002821
:1043C0003BD00026FFF730FB04461E48016820461C
:1043D000FFF718FE07461A48056812E005EBC5000E
:1043E0001949096801EB80046068B84200D90BE004
:1043F00060683F1A60680644256A2046FFF708FE99
:1044000000BF681C0028E9D100BF1048007810499F
:104410000978884209D10E480078401CC0B20C4986
:104420000870022801D1002008700A48084909785C
:1044300040F82160FFF78CFE00BFBDE8F08100006E
:10444000FC28002000290020F02800200C29002052
:104450000D2900200429002010B51120FBF77CFC59
:1044600010BD70B504461D4610881230A84201D90F
:104470000C2070BD1120168888551088401C1080B3
:104480001020168888551088401C10800F2307E0E4
:10449000E05C16888855581E43B21088401C108076
:1044A000002BF5DA0020E4E72DE9F041044600276F
:1044B0006079C0EBC000124901EB800000F10408F4
:1044C00000BFB8F812102068FEF725FF06464FF42B
:1044D00092712068FEF71FFF0546781C074640F6DC
:1044E000FF71884201D3012000E00020054345EA26
:1044F00006000028E5D085F00100BDE8F08100004D
:104500003833002070B506460C4640F20C61204856
:10451000226840F82210626840F822102068FEF7F6
:10452000C9FE6068FEF7C6FE40F20D6118482268B9
:1045300040F82210626840F822100420FAF7DEFFEB
:10454000002516E0606813490968C14001F00101C7
:1045500011B105B970BD0EE02068FEF79BFE042086
:10456000FAF7CCFF2068FEF7A5FE0420FAF7C6FF95
:104570006D1C092DE6DB00BF6068FEF78BFE042092
:10458000FAF7BCFF6068FEF795FE00BFE2E70000A7
:1045900000070050100500501FB50A4B0FCB8DE8E7
:1045A0000F0000BF002269460748FEF76BFB044678
:1045B00004B103E00448FEF72DFB00BF00BF204616
:1045C00004B010BD94530200805302002DE9FC5F3B
:1045D00005460F46904699466879C0EBC0005049A1
:1045E00001EB8000041D00200190009000BF4D48A9
:1045F0000068C0F3080189B1A1F1100250B200288F
:1046000007DA484B143300F00F06361F9B5D5B1131
:1046100002E0454B1B5C5B11D8B200E004208246EF
:10462000BAF1010F14D0684636DF0646022E01D1DA
:1046300072B60CE000BFB346BBF1000F06D000BF5E
:10464000002211465846FBF74DFF00BF00BF00BFD8
:10465000A07810B10120019001E00120A070BAF112
:10466000010F14D062B69DF8000037DF0646022E17
:104670000CD000BFB346BBF1000F06D000BF002234
:1046800011465846FBF72EFF00BF00BF00BF019840
:1046900010B11120BDE8FC9F2771A4F80C90C4F85C
:1046A00008800020E0810C9860700D982070002038
:1046B000E070207808B9012000E00020014628467B
:1046C000FFF764FC6879194951F8200028BB20786D
:1046D00008B1022000E00320064600BF2846FFF78D
:1046E000E3FE28B94FF492712868FEF71BFE0526F9
:1046F000618A2868FEF716FE31462846FFF746FC19
:10470000E07818B10020A0700320C3E7E089A189F8
:104710008842E3DB0020A07000BF0020BAE7000061
:104720003833002004ED00E000E400E0B828002069
:1047300010B54FF48E710948FEF713FE08488068E3
:104740000749098A445C0648008A401C04490882DB
:1047500020460449086000BF10BD00000020004052
:10476000483200201C25004030B58FB004460D466D
:104770001C2108A8FBF731F99DF8200020F0080063
:1047800008308DF820009DF8200020F00400001D66
:104790008DF82000002009900B900C900D900E9049
:1047A00020788DF80A000220ADF808000020019062
:1047B00000BF9DF8040020F00F00401C8DF804009D
:1047C0009DF8040020F0F00010308DF8040000BFC8
:1047D00000BF9DF8050020F00F00401C8DF805007B
:1047E0009DF8050020F0F00010308DF8050000BFA6
:1047F0009DF8060020F00600801C8DF806009DF84C
:10480000060020F008008DF806009DF8060020F054
:1048100010008DF806009DF8060020F00100401CF5
:104820008DF80600142103A8FBF7D7F802A803901F
:1048300001A804900120ADF814000020ADF8160086
:104840001420ADF818006088231D03AA08A9A2DF70
:104850000FB030BD70B505466879C0EBC0000749A0
:1048600001EB8000041DE089401CE081E089A18902
:10487000884202DA284600F035F870BD383300204F
:104880001FB5044600208DF800008DF8084006484A
:1048900080680190002004498874084601684268D5
:1048A000684690471FBD00004832002030B50446DE
:1048B0001088C01C984201D90C2030BD02201588F8
:1048C00048551088401C10800A20158848551088CB
:1048D000401C108015884C551088401C108000200A
:1048E000EBE7000070B504466079C0EBC0000749F3
:1048F00001EB8000051D2068AA68EB89D15CC0F837
:104900001C1500BF204600F003F870BD38330020AE
:104910002DE9F04105466879C0EBC0001D4901EB67
:104920008000041D28680321FEF705FDE089401C76
:10493000A18988421DD16078D8B902264FF48270CF
:104940006082618A2868FEF7EDFC6879124951F8A7
:10495000200048B161692868FEF7E7FC0220606129
:1049600061692868FEF7E4FC04212846FFF70EFB86
:1049700000E001262868D0F800123143C0F8001288
:1049800000BF277C2020207428683946FEF7D9FC18
:10499000BDE8F08138330020B828002010B5044667
:1049A0002078022806D100BF002211466068FBF77C
:1049B00099FD09E02078012806D100BF00221146A8
:1049C0006068FBF78FFD00BF10BD00007CB504469A
:1049D0000E462078012820D1606801782048FBF736
:1049E000BDFD054645B101208DF8000001956846E2
:1049F0001C49096888470BE01948FDF79FFB01280F
:104A000006D100208DF800006846164909688847DD
:104A100001211548FEF786FA21E02078022808D106
:104A20008DF80000E068019068460E4909688847E3
:104A300015E0207898B90D490D48FBF769FD18B9C4
:104A400001210A48FEF73AFB0948FDF777FB30B928
:104A500003208DF8000068460249096888477CBD3C
:104A6000D0310020882800208E2800208C280020AB
:104A7000E031002030B587B0114A07CA04AB07C344
:104A800000BF10480090202001900F4802904FF482
:104A90008060039003230D4A694604A8FBF78EFE4D
:104AA000044600BF00BF254635B100BF00221146B5
:104AB0002846FBF717FD00BF00BF07B030BD000060
:104AC00088530200CC290020EC2900209D490200D7
:104AD00002460A70100A48700220704738B5054631
:104AE0001E4800884FF6FF71884235D01C48007878
:104AF000401C1B4908701B48007B097888420DDB6D
:104B000019491648008875DF044634B11548806994
:104B100018B114488169204688471DE000201049DB
:104B200008701048007C68B13B210C48008876DF93
:104B3000044634B10B48806918B10A48816920469F
:104B4000884700BF0748406930B100200090054801
:104B500041696846884700BF38BD000076280020BC
:104B600074280020B43100206C28002030B589B0B2
:104B70000446322C15D006DC0A2C0DD00D2C0CD09E
:104B8000312C04D10AE0332C13D03F2C14D0214611
:104B900017A0FAF74BFD00BF00BF26E0FDF72CFE83
:104BA00023E0FEF779FE0546294616A0FAF73EFDFA
:104BB0001BE0FEF727FE18E0242219A16846FAF749
:104BC000DAFE204920A0FAF731FD69461EA0FAF767
:104BD0002DFD1EA0FAF72AFDFEF714FE1C491AA0AF
:104BE000FAF724FDFEF7C4FD00BF00BF09B030BDD9
:104BF000596F752073656C65637465642025630A5D
:104C000000000000636D6432203A3A2072656164EE
:104C1000446174612829203D2025640A00000000B9
:104C2000202020202020202020202A2A2020204C44
:104C3000534D36445333204D4F434B555020202A7B
:104C40002A0A000020530200257300000A00000019
:104C50004E53020008B5002000906846FBF7A4FD03
:104C60009DF8000018B19DF80000FFF77FFF08BD18
:104C700030B500BF12490968C1F308028AB1A2F138
:104C8000100359B2002907DA0D4C143401F00F0556
:104C90002D1F645D641102E00A4C645C6411E1B292
:104CA00000E00421012902D0032904D101E0002001
:104CB00003E0012001E0022000BF00BF30BD000082
:104CC00004ED00E000E400E030B502460B46507809
:104CD000411C9078884200D100211078884201D18F
:104CE000002030BD1960557805EB4505506800EB94
:104CF000C5042046F5E7417070472DE9FC47804622
:104D0000894615469A46DDE90A6753460222494616
:104D10004046CDE9006700F013F8044614B1204680
:104D2000BDE8FC875346102229464046CDE900677E
:104D300000F006F804460CB12046F1E70020EFE74A
:104D40002DE9FF5F06468B4696461D460E9C4FF0AA
:104D5000000820880390002746E0706800EB870079
:104D600000680190002202A901A865DF8246BAF11D
:104D7000000F03D0504604B0BDE8F09F9DF8080036
:104D8000704530D1B8F1000F01D0002000E00220C2
:104D9000009020889DF808100144009801440F9865
:104DA000814201DD0C20E6E7B8F1000F0AD120882E
